{
  "_format": "hh-sol-artifact-1",
  "contractName": "NFT",
  "sourceName": "contracts/NFT.sol",
  "abi": [
    {
      "inputs": [
        {
          "internalType": "address",
          "name": "marketplaceAddress",
          "type": "address"
        }
      ],
      "stateMutability": "nonpayable",
      "type": "constructor"
    },
    {
      "anonymous": false,
      "inputs": [
        {
          "indexed": true,
          "internalType": "address",
          "name": "owner",
          "type": "address"
        },
        {
          "indexed": true,
          "internalType": "address",
          "name": "approved",
          "type": "address"
        },
        {
          "indexed": true,
          "internalType": "uint256",
          "name": "tokenId",
          "type": "uint256"
        }
      ],
      "name": "Approval",
      "type": "event"
    },
    {
      "anonymous": false,
      "inputs": [
        {
          "indexed": true,
          "internalType": "address",
          "name": "owner",
          "type": "address"
        },
        {
          "indexed": true,
          "internalType": "address",
          "name": "operator",
          "type": "address"
        },
        {
          "indexed": false,
          "internalType": "bool",
          "name": "approved",
          "type": "bool"
        }
      ],
      "name": "ApprovalForAll",
      "type": "event"
    },
    {
      "anonymous": false,
      "inputs": [
        {
          "indexed": true,
          "internalType": "address",
          "name": "from",
          "type": "address"
        },
        {
          "indexed": true,
          "internalType": "address",
          "name": "to",
          "type": "address"
        },
        {
          "indexed": true,
          "internalType": "uint256",
          "name": "tokenId",
          "type": "uint256"
        }
      ],
      "name": "Transfer",
      "type": "event"
    },
    {
      "inputs": [
        {
          "internalType": "address",
          "name": "to",
          "type": "address"
        },
        {
          "internalType": "uint256",
          "name": "tokenId",
          "type": "uint256"
        }
      ],
      "name": "approve",
      "outputs": [],
      "stateMutability": "nonpayable",
      "type": "function"
    },
    {
      "inputs": [
        {
          "internalType": "address",
          "name": "owner",
          "type": "address"
        }
      ],
      "name": "balanceOf",
      "outputs": [
        {
          "internalType": "uint256",
          "name": "",
          "type": "uint256"
        }
      ],
      "stateMutability": "view",
      "type": "function"
    },
    {
      "inputs": [
        {
          "internalType": "string",
          "name": "TokenURI",
          "type": "string"
        }
      ],
      "name": "createToken",
      "outputs": [
        {
          "internalType": "uint256",
          "name": "",
          "type": "uint256"
        }
      ],
      "stateMutability": "nonpayable",
      "type": "function"
    },
    {
      "inputs": [
        {
          "internalType": "uint256",
          "name": "tokenId",
          "type": "uint256"
        }
      ],
      "name": "getApproved",
      "outputs": [
        {
          "internalType": "address",
          "name": "",
          "type": "address"
        }
      ],
      "stateMutability": "view",
      "type": "function"
    },
    {
      "inputs": [
        {
          "internalType": "uint256",
          "name": "tokenId",
          "type": "uint256"
        }
      ],
      "name": "giveResaleApproval",
      "outputs": [],
      "stateMutability": "nonpayable",
      "type": "function"
    },
    {
      "inputs": [
        {
          "internalType": "address",
          "name": "owner",
          "type": "address"
        },
        {
          "internalType": "address",
          "name": "operator",
          "type": "address"
        }
      ],
      "name": "isApprovedForAll",
      "outputs": [
        {
          "internalType": "bool",
          "name": "",
          "type": "bool"
        }
      ],
      "stateMutability": "view",
      "type": "function"
    },
    {
      "inputs": [],
      "name": "name",
      "outputs": [
        {
          "internalType": "string",
          "name": "",
          "type": "string"
        }
      ],
      "stateMutability": "view",
      "type": "function"
    },
    {
      "inputs": [
        {
          "internalType": "uint256",
          "name": "tokenId",
          "type": "uint256"
        }
      ],
      "name": "ownerOf",
      "outputs": [
        {
          "internalType": "address",
          "name": "",
          "type": "address"
        }
      ],
      "stateMutability": "view",
      "type": "function"
    },
    {
      "inputs": [
        {
          "internalType": "address",
          "name": "from",
          "type": "address"
        },
        {
          "internalType": "address",
          "name": "to",
          "type": "address"
        },
        {
          "internalType": "uint256",
          "name": "tokenId",
          "type": "uint256"
        }
      ],
      "name": "safeTransferFrom",
      "outputs": [],
      "stateMutability": "nonpayable",
      "type": "function"
    },
    {
      "inputs": [
        {
          "internalType": "address",
          "name": "from",
          "type": "address"
        },
        {
          "internalType": "address",
          "name": "to",
          "type": "address"
        },
        {
          "internalType": "uint256",
          "name": "tokenId",
          "type": "uint256"
        },
        {
          "internalType": "bytes",
          "name": "data",
          "type": "bytes"
        }
      ],
      "name": "safeTransferFrom",
      "outputs": [],
      "stateMutability": "nonpayable",
      "type": "function"
    },
    {
      "inputs": [
        {
          "internalType": "address",
          "name": "operator",
          "type": "address"
        },
        {
          "internalType": "bool",
          "name": "approved",
          "type": "bool"
        }
      ],
      "name": "setApprovalForAll",
      "outputs": [],
      "stateMutability": "nonpayable",
      "type": "function"
    },
    {
      "inputs": [
        {
          "internalType": "bytes4",
          "name": "interfaceId",
          "type": "bytes4"
        }
      ],
      "name": "supportsInterface",
      "outputs": [
        {
          "internalType": "bool",
          "name": "",
          "type": "bool"
        }
      ],
      "stateMutability": "view",
      "type": "function"
    },
    {
      "inputs": [],
      "name": "symbol",
      "outputs": [
        {
          "internalType": "string",
          "name": "",
          "type": "string"
        }
      ],
      "stateMutability": "view",
      "type": "function"
    },
    {
      "inputs": [
        {
          "internalType": "uint256",
          "name": "tokenId",
          "type": "uint256"
        }
      ],
      "name": "tokenURI",
      "outputs": [
        {
          "internalType": "string",
          "name": "",
          "type": "string"
        }
      ],
      "stateMutability": "view",
      "type": "function"
    },
    {
      "inputs": [
        {
          "internalType": "address",
          "name": "from",
          "type": "address"
        },
        {
          "internalType": "address",
          "name": "to",
          "type": "address"
        },
        {
          "internalType": "uint256",
          "name": "tokenId",
          "type": "uint256"
        }
      ],
      "name": "transferFrom",
      "outputs": [],
      "stateMutability": "nonpayable",
      "type": "function"
    }
  ],
  "bytecode": "0x60806040523480156200001157600080fd5b50604051620017b6380380620017b683398101604081905262000034916200016e565b604080518082018252601081526f4d657461766572736520546f6b656e7360801b6020808301918252835180850190945260048452631351551560e21b9084015281519192916200008891600091620000c8565b5080516200009e906001906020840190620000c8565b5050600880546001600160a01b0319166001600160a01b03939093169290921790915550620001db565b828054620000d6906200019e565b90600052602060002090601f016020900481019282620000fa576000855562000145565b82601f106200011557805160ff191683800117855562000145565b8280016001018555821562000145579182015b828111156200014557825182559160200191906001019062000128565b506200015392915062000157565b5090565b5b8082111562000153576000815560010162000158565b60006020828403121562000180578081fd5b81516001600160a01b038116811462000197578182fd5b9392505050565b600181811c90821680620001b357607f821691505b60208210811415620001d557634e487b7160e01b600052602260045260246000fd5b50919050565b6115cb80620001eb6000396000f3fe608060405234801561001057600080fd5b50600436106100f55760003560e01c80636352211e11610097578063a22cb46511610066578063a22cb465146101ff578063b88d4fde14610212578063c87b56dd14610225578063e985e9c51461023857600080fd5b80636352211e146101be57806370a08231146101d15780637e78146c146101e457806395d89b41146101f757600080fd5b8063095ea7b3116100d3578063095ea7b31461016257806323b872dd1461017757806342842e0e1461018a57806345576f941461019d57600080fd5b806301ffc9a7146100fa57806306fdde0314610122578063081812fc14610137575b600080fd5b61010d610108366004611283565b610274565b60405190151581526020015b60405180910390f35b61012a6102c6565b60405161011991906113b1565b61014a610145366004611301565b610358565b6040516001600160a01b039091168152602001610119565b61017561017036600461125a565b61037f565b005b61017561018536600461116c565b61049a565b61017561019836600461116c565b6104cb565b6101b06101ab3660046112bb565b6104e6565b604051908152602001610119565b61014a6101cc366004611301565b61052e565b6101b06101df366004611120565b61058e565b6101756101f2366004611301565b610614565b61012a61062e565b61017561020d366004611220565b61063d565b6101756102203660046111a7565b61064c565b61012a610233366004611301565b610684565b61010d61024636600461113a565b6001600160a01b03918216600090815260056020908152604080832093909416825291909152205460ff1690565b60006001600160e01b031982166380ac58cd60e01b14806102a557506001600160e01b03198216635b5e139f60e01b145b806102c057506301ffc9a760e01b6001600160e01b03198316145b92915050565b6060600080546102d5906114d3565b80601f0160208091040260200160405190810160405280929190818152602001828054610301906114d3565b801561034e5780601f106103235761010080835404028352916020019161034e565b820191906000526020600020905b81548152906001019060200180831161033157829003601f168201915b5050505050905090565b600061036382610795565b506000908152600460205260409020546001600160a01b031690565b600061038a8261052e565b9050806001600160a01b0316836001600160a01b031614156103fd5760405162461bcd60e51b815260206004820152602160248201527f4552433732313a20617070726f76616c20746f2063757272656e74206f776e656044820152603960f91b60648201526084015b60405180910390fd5b336001600160a01b038216148061041957506104198133610246565b61048b5760405162461bcd60e51b815260206004820152603e60248201527f4552433732313a20617070726f76652063616c6c6572206973206e6f7420746f60448201527f6b656e206f776e6572206e6f7220617070726f76656420666f7220616c6c000060648201526084016103f4565b61049583836107f4565b505050565b6104a43382610862565b6104c05760405162461bcd60e51b81526004016103f490611416565b6104958383836108e0565b6104958383836040518060200160405280600081525061064c565b60006104f6600780546001019055565b600061050160075490565b905061050d3382610a7c565b6105178184610bbe565b6008546102c0906001600160a01b0316600161063d565b6000818152600260205260408120546001600160a01b0316806102c05760405162461bcd60e51b8152602060048201526018602482015277115490cdcc8c4e881a5b9d985b1a59081d1bdad95b88125160421b60448201526064016103f4565b60006001600160a01b0382166105f85760405162461bcd60e51b815260206004820152602960248201527f4552433732313a2061646472657373207a65726f206973206e6f7420612076616044820152683634b21037bbb732b960b91b60648201526084016103f4565b506001600160a01b031660009081526003602052604090205490565b60085461062b906001600160a01b0316600161063d565b50565b6060600180546102d5906114d3565b610648338383610c58565b5050565b6106563383610862565b6106725760405162461bcd60e51b81526004016103f490611416565b61067e84848484610d27565b50505050565b606061068f82610795565b600082815260066020526040812080546106a8906114d3565b80601f01602080910402602001604051908101604052809291908181526020018280546106d4906114d3565b80156107215780601f106106f657610100808354040283529160200191610721565b820191906000526020600020905b81548152906001019060200180831161070457829003601f168201915b50505050509050600061073f60408051602081019091526000815290565b9050805160001415610752575092915050565b81511561078457808260405160200161076c929190611345565b60405160208183030381529060405292505050919050565b61078d84610d5a565b949350505050565b6000818152600260205260409020546001600160a01b031661062b5760405162461bcd60e51b8152602060048201526018602482015277115490cdcc8c4e881a5b9d985b1a59081d1bdad95b88125160421b60448201526064016103f4565b600081815260046020526040902080546001600160a01b0319166001600160a01b03841690811790915581906108298261052e565b6001600160a01b03167f8c5be1e5ebec7d5bd14f71427d1e84f3dd0314c0f7b2291e5b200ac8c7c3b92560405160405180910390a45050565b60008061086e8361052e565b9050806001600160a01b0316846001600160a01b031614806108b557506001600160a01b0380821660009081526005602090815260408083209388168352929052205460ff165b8061078d5750836001600160a01b03166108ce84610358565b6001600160a01b031614949350505050565b826001600160a01b03166108f38261052e565b6001600160a01b0316146109575760405162461bcd60e51b815260206004820152602560248201527f4552433732313a207472616e736665722066726f6d20696e636f72726563742060448201526437bbb732b960d91b60648201526084016103f4565b6001600160a01b0382166109b95760405162461bcd60e51b8152602060048201526024808201527f4552433732313a207472616e7366657220746f20746865207a65726f206164646044820152637265737360e01b60648201526084016103f4565b6109c46000826107f4565b6001600160a01b03831660009081526003602052604081208054600192906109ed908490611490565b90915550506001600160a01b0382166000908152600360205260408120805460019290610a1b908490611464565b909155505060008181526002602052604080822080546001600160a01b0319166001600160a01b0386811691821790925591518493918716917fddf252ad1be2c89b69c2b068fc378daa952ba7f163c4a11628f55a4df523b3ef91a4505050565b6001600160a01b038216610ad25760405162461bcd60e51b815260206004820181905260248201527f4552433732313a206d696e7420746f20746865207a65726f206164647265737360448201526064016103f4565b6000818152600260205260409020546001600160a01b031615610b375760405162461bcd60e51b815260206004820152601c60248201527f4552433732313a20746f6b656e20616c7265616479206d696e7465640000000060448201526064016103f4565b6001600160a01b0382166000908152600360205260408120805460019290610b60908490611464565b909155505060008181526002602052604080822080546001600160a01b0319166001600160a01b03861690811790915590518392907fddf252ad1be2c89b69c2b068fc378daa952ba7f163c4a11628f55a4df523b3ef908290a45050565b6000828152600260205260409020546001600160a01b0316610c395760405162461bcd60e51b815260206004820152602e60248201527f45524337323155524953746f726167653a2055524920736574206f66206e6f6e60448201526d32bc34b9ba32b73a103a37b5b2b760911b60648201526084016103f4565b6000828152600660209081526040909120825161049592840190610ff5565b816001600160a01b0316836001600160a01b03161415610cba5760405162461bcd60e51b815260206004820152601960248201527f4552433732313a20617070726f766520746f2063616c6c65720000000000000060448201526064016103f4565b6001600160a01b03838116600081815260056020908152604080832094871680845294825291829020805460ff191686151590811790915591519182527f17307eab39ab6107e8899845ad3d59bd9653f200f220920489ca2b5937696c31910160405180910390a3505050565b610d328484846108e0565b610d3e84848484610dce565b61067e5760405162461bcd60e51b81526004016103f4906113c4565b6060610d6582610795565b6000610d7c60408051602081019091526000815290565b90506000815111610d9c5760405180602001604052806000815250610dc7565b80610da684610edb565b604051602001610db7929190611345565b6040516020818303038152906040525b9392505050565b60006001600160a01b0384163b15610ed057604051630a85bd0160e11b81526001600160a01b0385169063150b7a0290610e12903390899088908890600401611374565b602060405180830381600087803b158015610e2c57600080fd5b505af1925050508015610e5c575060408051601f3d908101601f19168201909252610e599181019061129f565b60015b610eb6573d808015610e8a576040519150601f19603f3d011682016040523d82523d6000602084013e610e8f565b606091505b508051610eae5760405162461bcd60e51b81526004016103f4906113c4565b805181602001fd5b6001600160e01b031916630a85bd0160e11b14905061078d565b506001949350505050565b606081610eff5750506040805180820190915260018152600360fc1b602082015290565b8160005b8115610f295780610f138161150e565b9150610f229050600a8361147c565b9150610f03565b60008167ffffffffffffffff811115610f5257634e487b7160e01b600052604160045260246000fd5b6040519080825280601f01601f191660200182016040528015610f7c576020820181803683370190505b5090505b841561078d57610f91600183611490565b9150610f9e600a86611529565b610fa9906030611464565b60f81b818381518110610fcc57634e487b7160e01b600052603260045260246000fd5b60200101906001600160f81b031916908160001a905350610fee600a8661147c565b9450610f80565b828054611001906114d3565b90600052602060002090601f0160209004810192826110235760008555611069565b82601f1061103c57805160ff1916838001178555611069565b82800160010185558215611069579182015b8281111561106957825182559160200191906001019061104e565b50611075929150611079565b5090565b5b80821115611075576000815560010161107a565b600067ffffffffffffffff808411156110a9576110a9611569565b604051601f8501601f19908116603f011681019082821181831017156110d1576110d1611569565b816040528093508581528686860111156110ea57600080fd5b858560208301376000602087830101525050509392505050565b80356001600160a01b038116811461111b57600080fd5b919050565b600060208284031215611131578081fd5b610dc782611104565b6000806040838503121561114c578081fd5b61115583611104565b915061116360208401611104565b90509250929050565b600080600060608486031215611180578081fd5b61118984611104565b925061119760208501611104565b9150604084013590509250925092565b600080600080608085870312156111bc578081fd5b6111c585611104565b93506111d360208601611104565b925060408501359150606085013567ffffffffffffffff8111156111f5578182fd5b8501601f81018713611205578182fd5b6112148782356020840161108e565b91505092959194509250565b60008060408385031215611232578182fd5b61123b83611104565b91506020830135801515811461124f578182fd5b809150509250929050565b6000806040838503121561126c578182fd5b61127583611104565b946020939093013593505050565b600060208284031215611294578081fd5b8135610dc78161157f565b6000602082840312156112b0578081fd5b8151610dc78161157f565b6000602082840312156112cc578081fd5b813567ffffffffffffffff8111156112e2578182fd5b8201601f810184136112f2578182fd5b61078d8482356020840161108e565b600060208284031215611312578081fd5b5035919050565b600081518084526113318160208601602086016114a7565b601f01601f19169290920160200192915050565b600083516113578184602088016114a7565b83519083019061136b8183602088016114a7565b01949350505050565b6001600160a01b03858116825284166020820152604081018390526080606082018190526000906113a790830184611319565b9695505050505050565b602081526000610dc76020830184611319565b60208082526032908201527f4552433732313a207472616e7366657220746f206e6f6e20455243373231526560408201527131b2b4bb32b91034b6b83632b6b2b73a32b960711b606082015260800190565b6020808252602e908201527f4552433732313a2063616c6c6572206973206e6f7420746f6b656e206f776e6560408201526d1c881b9bdc88185c1c1c9bdd995960921b606082015260800190565b600082198211156114775761147761153d565b500190565b60008261148b5761148b611553565b500490565b6000828210156114a2576114a261153d565b500390565b60005b838110156114c25781810151838201526020016114aa565b8381111561067e5750506000910152565b600181811c908216806114e757607f821691505b6020821081141561150857634e487b7160e01b600052602260045260246000fd5b50919050565b60006000198214156115225761152261153d565b5060010190565b60008261153857611538611553565b500690565b634e487b7160e01b600052601160045260246000fd5b634e487b7160e01b600052601260045260246000fd5b634e487b7160e01b600052604160045260246000fd5b6001600160e01b03198116811461062b57600080fdfea2646970667358221220ab3800a182b53c85f9c4728f82f724baff73ea8432aae91f3652d24ffe29353c64736f6c63430008040033",
  "linkReferences": {},
  "deployedLinkReferences": {}
}