{
  "contracts/NFTMarket.sol": {
    "NFTMarket": {
      "abi": [
        {
          "inputs": [],
          "stateMutability": "nonpayable",
          "type": "constructor"
        },
        {
          "anonymous": false,
          "inputs": [
            {
              "indexed": true,
              "internalType": "uint256",
              "name": "itemId",
              "type": "uint256"
            },
            {
              "indexed": true,
              "internalType": "address",
              "name": "nftWarranty",
              "type": "address"
            },
            {
              "indexed": true,
              "internalType": "uint256",
              "name": "tokenId",
              "type": "uint256"
            },
            {
              "indexed": false,
              "internalType": "uint256",
              "name": "period",
              "type": "uint256"
            },
            {
              "indexed": false,
              "internalType": "uint256",
              "name": "pno",
              "type": "uint256"
            },
            {
              "indexed": false,
              "internalType": "address",
              "name": "seller",
              "type": "address"
            },
            {
              "indexed": false,
              "internalType": "address",
              "name": "owner",
              "type": "address"
            },
            {
              "indexed": false,
              "internalType": "bool",
              "name": "activated",
              "type": "bool"
            }
          ],
          "name": "WarrantyCreated",
          "type": "event"
        },
        {
          "inputs": [
            {
              "internalType": "uint256",
              "name": "prodno",
              "type": "uint256"
            }
          ],
          "name": "checkOwner",
          "outputs": [
            {
              "components": [
                {
                  "internalType": "uint256",
                  "name": "itemId",
                  "type": "uint256"
                },
                {
                  "internalType": "address",
                  "name": "nftWarranty",
                  "type": "address"
                },
                {
                  "internalType": "uint256",
                  "name": "tokenId",
                  "type": "uint256"
                },
                {
                  "internalType": "uint256",
                  "name": "period",
                  "type": "uint256"
                },
                {
                  "internalType": "uint256",
                  "name": "pno",
                  "type": "uint256"
                },
                {
                  "internalType": "address payable",
                  "name": "seller",
                  "type": "address"
                },
                {
                  "internalType": "address payable",
                  "name": "owner",
                  "type": "address"
                },
                {
                  "internalType": "bool",
                  "name": "activated",
                  "type": "bool"
                }
              ],
              "internalType": "struct NFTMarket.WarrantyItem[]",
              "name": "",
              "type": "tuple[]"
            }
          ],
          "stateMutability": "view",
          "type": "function"
        },
        {
          "inputs": [
            {
              "internalType": "address",
              "name": "nftWarranty",
              "type": "address"
            },
            {
              "internalType": "uint256",
              "name": "itemId",
              "type": "uint256"
            }
          ],
          "name": "claimWarranty",
          "outputs": [
            {
              "internalType": "bool",
              "name": "",
              "type": "bool"
            }
          ],
          "stateMutability": "nonpayable",
          "type": "function"
        },
        {
          "inputs": [
            {
              "internalType": "address",
              "name": "nftWarranty",
              "type": "address"
            },
            {
              "internalType": "uint256",
              "name": "itemId",
              "type": "uint256"
            }
          ],
          "name": "createMarketSale",
          "outputs": [],
          "stateMutability": "payable",
          "type": "function"
        },
        {
          "inputs": [
            {
              "internalType": "address",
              "name": "nftWarranty",
              "type": "address"
            },
            {
              "internalType": "uint256",
              "name": "tokenId",
              "type": "uint256"
            },
            {
              "internalType": "uint256",
              "name": "period",
              "type": "uint256"
            },
            {
              "internalType": "uint256",
              "name": "pno",
              "type": "uint256"
            }
          ],
          "name": "createWarrantyItem",
          "outputs": [],
          "stateMutability": "payable",
          "type": "function"
        },
        {
          "inputs": [],
          "name": "fetchActivatedWarranty",
          "outputs": [
            {
              "components": [
                {
                  "internalType": "uint256",
                  "name": "itemId",
                  "type": "uint256"
                },
                {
                  "internalType": "address",
                  "name": "nftWarranty",
                  "type": "address"
                },
                {
                  "internalType": "uint256",
                  "name": "tokenId",
                  "type": "uint256"
                },
                {
                  "internalType": "uint256",
                  "name": "period",
                  "type": "uint256"
                },
                {
                  "internalType": "uint256",
                  "name": "pno",
                  "type": "uint256"
                },
                {
                  "internalType": "address payable",
                  "name": "seller",
                  "type": "address"
                },
                {
                  "internalType": "address payable",
                  "name": "owner",
                  "type": "address"
                },
                {
                  "internalType": "bool",
                  "name": "activated",
                  "type": "bool"
                }
              ],
              "internalType": "struct NFTMarket.WarrantyItem[]",
              "name": "",
              "type": "tuple[]"
            }
          ],
          "stateMutability": "view",
          "type": "function"
        },
        {
          "inputs": [],
          "name": "fetchMyWarranty",
          "outputs": [
            {
              "components": [
                {
                  "internalType": "uint256",
                  "name": "itemId",
                  "type": "uint256"
                },
                {
                  "internalType": "address",
                  "name": "nftWarranty",
                  "type": "address"
                },
                {
                  "internalType": "uint256",
                  "name": "tokenId",
                  "type": "uint256"
                },
                {
                  "internalType": "uint256",
                  "name": "period",
                  "type": "uint256"
                },
                {
                  "internalType": "uint256",
                  "name": "pno",
                  "type": "uint256"
                },
                {
                  "internalType": "address payable",
                  "name": "seller",
                  "type": "address"
                },
                {
                  "internalType": "address payable",
                  "name": "owner",
                  "type": "address"
                },
                {
                  "internalType": "bool",
                  "name": "activated",
                  "type": "bool"
                }
              ],
              "internalType": "struct NFTMarket.WarrantyItem[]",
              "name": "",
              "type": "tuple[]"
            }
          ],
          "stateMutability": "view",
          "type": "function"
        },
        {
          "inputs": [],
          "name": "fetchWarranty",
          "outputs": [
            {
              "components": [
                {
                  "internalType": "uint256",
                  "name": "itemId",
                  "type": "uint256"
                },
                {
                  "internalType": "address",
                  "name": "nftWarranty",
                  "type": "address"
                },
                {
                  "internalType": "uint256",
                  "name": "tokenId",
                  "type": "uint256"
                },
                {
                  "internalType": "uint256",
                  "name": "period",
                  "type": "uint256"
                },
                {
                  "internalType": "uint256",
                  "name": "pno",
                  "type": "uint256"
                },
                {
                  "internalType": "address payable",
                  "name": "seller",
                  "type": "address"
                },
                {
                  "internalType": "address payable",
                  "name": "owner",
                  "type": "address"
                },
                {
                  "internalType": "bool",
                  "name": "activated",
                  "type": "bool"
                }
              ],
              "internalType": "struct NFTMarket.WarrantyItem[]",
              "name": "",
              "type": "tuple[]"
            }
          ],
          "stateMutability": "view",
          "type": "function"
        },
        {
          "inputs": [
            {
              "internalType": "address",
              "name": "nftWarranty",
              "type": "address"
            },
            {
              "internalType": "uint256",
              "name": "itemId",
              "type": "uint256"
            },
            {
              "internalType": "address",
              "name": "to",
              "type": "address"
            }
          ],
          "name": "transferWarranty",
          "outputs": [],
          "stateMutability": "payable",
          "type": "function"
        }
      ],
      "evm": {
        "bytecode": {
          "linkReferences": {},
          "object": "608060405234801561001057600080fd5b506001600055600380546001600160a01b03191633179055611181806100376000396000f3fe60806040526004361061007b5760003560e01c80639870dce01161004e5780639870dce0146100e8578063a62d741514610108578063c23b139e14610138578063c2adfcec1461014b57600080fd5b8063033a9d78146100805780633ab18372146100955780633c28f8bb146100c05780634294df71146100d3575b600080fd5b61009361008e366004610f87565b610160565b005b3480156100a157600080fd5b506100aa6103be565b6040516100b79190610ffd565b60405180910390f35b6100936100ce366004610f46565b610587565b3480156100df57600080fd5b506100aa61065d565b3480156100f457600080fd5b506100aa610103366004610fc1565b610862565b34801561011457600080fd5b50610128610123366004610f1b565b610a5b565b60405190151581526020016100b7565b610093610146366004610f1b565b610b33565b34801561015757600080fd5b506100aa610c8a565b6002600054141561018c5760405162461bcd60e51b81526004016101839061109c565b60405180910390fd5b600260005573df3e18d64bc6a983f673ab319ccae4f1a57c7097331461021a5760405162461bcd60e51b815260206004820152603a60248201527f5472616e73616374696f6e2052656a656374656421204163636f756e74204e6f60448201527f7420417574686f72697a656420746f20437265617465204e46540000000000006064820152608401610183565b610228600180546001019055565b600061023360015490565b60408051610100810182528281526001600160a01b0380891660208084018281528486018b8152606086018b8152608087018b81523360a08901818152600060c08b0181815260e08c018281528e83526004998a9052918d90209b518c55965160018c018054918c166001600160a01b0319928316179055955160028c0155935160038b01559151898701559051600589018054918916919094161790925591516006909601805492511515600160a01b026001600160a81b031990931696909516959095171790925592516323b872dd60e01b815293945091926323b872dd92610323929130918a9101610fd9565b600060405180830381600087803b15801561033d57600080fd5b505af1158015610351573d6000803e3d6000fd5b505060408051868152602081018690523381830152600060608201819052608082015290518793506001600160a01b038916925084917fcfc209ed431e2f0c54248e4008c259e3a981bbffc299183fd4f93dc2e8cad282919081900360a00190a450506001600055505050565b606060006103cb60015490565b905060006103d860025490565b6001546103e591906110eb565b90506000808267ffffffffffffffff81111561041157634e487b7160e01b600052604160045260246000fd5b60405190808252806020026020018201604052801561044a57816020015b610437610e96565b81526020019060019003908161042f5790505b50905060005b8481101561057e5760006004816104688460016110d3565b81526020810191909152604001600020600601546001600160a01b0316141561056c57600060048161049b8460016110d3565b815260208082019290925260409081016000908120548082526004808552918390208351610100810185528154815260018201546001600160a01b0390811696820196909652600282015494810194909452600381015460608501529182015460808401526005820154841660a0840152600682015493841660c0840152600160a01b90930460ff16151560e083015285519293509185908790811061055157634e487b7160e01b600052603260045260246000fd5b60209081029190910101526105676001866110d3565b945050505b8061057681611102565b915050610450565b50949350505050565b600260005414156105aa5760405162461bcd60e51b81526004016101839061109c565b60026000818155838152600460208190526040918290209092015490516323b872dd60e01b815290916001600160a01b038616916323b872dd916105f49133918791879101610fd9565b600060405180830381600087803b15801561060e57600080fd5b505af1158015610622573d6000803e3d6000fd5b5050506000938452505060046020526040822060060180546001600160a01b0319166001600160a01b03929092169190911790556001905550565b6060600061066a60015490565b905060008060005b838110156106cb57336004600061068a8460016110d3565b81526020810191909152604001600020600601546001600160a01b031614156106bb576106b86001846110d3565b92505b6106c481611102565b9050610672565b5060008267ffffffffffffffff8111156106f557634e487b7160e01b600052604160045260246000fd5b60405190808252806020026020018201604052801561072e57816020015b61071b610e96565b8152602001906001900390816107135790505b50905060005b8481101561057e57336004600061074c8460016110d3565b81526020810191909152604001600020600601546001600160a01b0316141561085057600060048161077f8460016110d3565b815260208082019290925260409081016000908120548082526004808552918390208351610100810185528154815260018201546001600160a01b0390811696820196909652600282015494810194909452600381015460608501529182015460808401526005820154841660a0840152600682015493841660c0840152600160a01b90930460ff16151560e083015285519293509185908790811061083557634e487b7160e01b600052603260045260246000fd5b602090810291909101015261084b6001866110d3565b945050505b8061085a81611102565b915050610734565b6060600061086f60015490565b905060008060005b838110156108c557856004600061088f8460016110d3565b81526020019081526020016000206004015414156108b5576108b26001846110d3565b92505b6108be81611102565b9050610877565b5060008267ffffffffffffffff8111156108ef57634e487b7160e01b600052604160045260246000fd5b60405190808252806020026020018201604052801561092857816020015b610915610e96565b81526020019060019003908161090d5790505b50905060005b84811015610a515786600460006109468460016110d3565b8152602001908152602001600020600401541415610a3f57600060048161096e8460016110d3565b815260208082019290925260409081016000908120548082526004808552918390208351610100810185528154815260018201546001600160a01b0390811696820196909652600282015494810194909452600381015460608501529182015460808401526005820154841660a0840152600682015493841660c0840152600160a01b90930460ff16151560e0830152855192935091859087908110610a2457634e487b7160e01b600052603260045260246000fd5b6020908102919091010152610a3a6001866110d3565b945050505b80610a4981611102565b91505061092e565b5095945050505050565b60008181526004602052604081206003015461dead90421115610b27576000838152600460208190526040918290206002015491516323b872dd60e01b81526001600160a01b038716916323b872dd91610abb9133918791879101610fd9565b600060405180830381600087803b158015610ad557600080fd5b505af1158015610ae9573d6000803e3d6000fd5b505050600085815260046020526040812060060180546001600160a01b0319166001600160a01b03959095169490941790935550909150610b2d9050565b60019150505b92915050565b60026000541415610b565760405162461bcd60e51b81526004016101839061109c565b60026000818155828152600460208190526040918290209092015490516331a9108f60e11b8152918201819052906001600160a01b038416906323b872dd908290636352211e9060240160206040518083038186803b158015610bb857600080fd5b505afa158015610bcc573d6000803e3d6000fd5b505050506040513d601f19601f82011682018060405250810190610bf09190610ef8565b33846040518463ffffffff1660e01b8152600401610c1093929190610fd9565b600060405180830381600087803b158015610c2a57600080fd5b505af1158015610c3e573d6000803e3d6000fd5b5050506000838152600460205260409020600601805460ff60a01b1933166001600160a81b031990911617600160a01b17905550610c80600280546001019055565b5050600160005550565b60606000610c9760015490565b905060008060005b83811015610cf8573360046000610cb78460016110d3565b81526020810191909152604001600020600501546001600160a01b03161415610ce857610ce56001846110d3565b92505b610cf181611102565b9050610c9f565b5060008267ffffffffffffffff811115610d2257634e487b7160e01b600052604160045260246000fd5b604051908082528060200260200182016040528015610d5b57816020015b610d48610e96565b815260200190600190039081610d405790505b50905060005b8481101561057e5760046000610d788360016110d3565b815260200190815260200160002060060160149054906101000a900460ff161515600115151415610e84576000600481610db38460016110d3565b815260208082019290925260409081016000908120548082526004808552918390208351610100810185528154815260018201546001600160a01b0390811696820196909652600282015494810194909452600381015460608501529182015460808401526005820154841660a0840152600682015493841660c0840152600160a01b90930460ff16151560e0830152855192935091859087908110610e6957634e487b7160e01b600052603260045260246000fd5b6020908102919091010152610e7f6001866110d3565b945050505b80610e8e81611102565b915050610d61565b6040518061010001604052806000815260200160006001600160a01b0316815260200160008152602001600081526020016000815260200160006001600160a01b0316815260200160006001600160a01b031681526020016000151581525090565b600060208284031215610f09578081fd5b8151610f1481611133565b9392505050565b60008060408385031215610f2d578081fd5b8235610f3881611133565b946020939093013593505050565b600080600060608486031215610f5a578081fd5b8335610f6581611133565b9250602084013591506040840135610f7c81611133565b809150509250925092565b60008060008060808587031215610f9c578081fd5b8435610fa781611133565b966020860135965060408601359560600135945092505050565b600060208284031215610fd2578081fd5b5035919050565b6001600160a01b039384168152919092166020820152604081019190915260600190565b602080825282518282018190526000919060409081850190868401855b8281101561108f57815180518552868101516001600160a01b03908116888701528682015187870152606080830151908701526080808301519087015260a08083015182169087015260c0808301519091169086015260e090810151151590850152610100909301929085019060010161101a565b5091979650505050505050565b6020808252601f908201527f5265656e7472616e637947756172643a207265656e7472616e742063616c6c00604082015260600190565b600082198211156110e6576110e661111d565b500190565b6000828210156110fd576110fd61111d565b500390565b60006000198214156111165761111661111d565b5060010190565b634e487b7160e01b600052601160045260246000fd5b6001600160a01b038116811461114857600080fd5b5056fea2646970667358221220439981c8170067bae2a3226b5251e4faec73c33434ed7c6c20171b1defba4bc364736f6c63430008040033",
          "opcodes": "PUSH1 0x80 PUSH1 0x40 MSTORE CALLVALUE DUP1 ISZERO PUSH2 0x10 JUMPI PUSH1 0x0 DUP1 REVERT JUMPDEST POP PUSH1 0x1 PUSH1 0x0 SSTORE PUSH1 0x3 DUP1 SLOAD PUSH1 0x1 PUSH1 0x1 PUSH1 0xA0 SHL SUB NOT AND CALLER OR SWAP1 SSTORE PUSH2 0x1181 DUP1 PUSH2 0x37 PUSH1 0x0 CODECOPY PUSH1 0x0 RETURN INVALID PUSH1 0x80 PUSH1 0x40 MSTORE PUSH1 0x4 CALLDATASIZE LT PUSH2 0x7B JUMPI PUSH1 0x0 CALLDATALOAD PUSH1 0xE0 SHR DUP1 PUSH4 0x9870DCE0 GT PUSH2 0x4E JUMPI DUP1 PUSH4 0x9870DCE0 EQ PUSH2 0xE8 JUMPI DUP1 PUSH4 0xA62D7415 EQ PUSH2 0x108 JUMPI DUP1 PUSH4 0xC23B139E EQ PUSH2 0x138 JUMPI DUP1 PUSH4 0xC2ADFCEC EQ PUSH2 0x14B JUMPI PUSH1 0x0 DUP1 REVERT JUMPDEST DUP1 PUSH4 0x33A9D78 EQ PUSH2 0x80 JUMPI DUP1 PUSH4 0x3AB18372 EQ PUSH2 0x95 JUMPI DUP1 PUSH4 0x3C28F8BB EQ PUSH2 0xC0 JUMPI DUP1 PUSH4 0x4294DF71 EQ PUSH2 0xD3 JUMPI JUMPDEST PUSH1 0x0 DUP1 REVERT JUMPDEST PUSH2 0x93 PUSH2 0x8E CALLDATASIZE PUSH1 0x4 PUSH2 0xF87 JUMP JUMPDEST PUSH2 0x160 JUMP JUMPDEST STOP JUMPDEST CALLVALUE DUP1 ISZERO PUSH2 0xA1 JUMPI PUSH1 0x0 DUP1 REVERT JUMPDEST POP PUSH2 0xAA PUSH2 0x3BE JUMP JUMPDEST PUSH1 0x40 MLOAD PUSH2 0xB7 SWAP2 SWAP1 PUSH2 0xFFD JUMP JUMPDEST PUSH1 0x40 MLOAD DUP1 SWAP2 SUB SWAP1 RETURN JUMPDEST PUSH2 0x93 PUSH2 0xCE CALLDATASIZE PUSH1 0x4 PUSH2 0xF46 JUMP JUMPDEST PUSH2 0x587 JUMP JUMPDEST CALLVALUE DUP1 ISZERO PUSH2 0xDF JUMPI PUSH1 0x0 DUP1 REVERT JUMPDEST POP PUSH2 0xAA PUSH2 0x65D JUMP JUMPDEST CALLVALUE DUP1 ISZERO PUSH2 0xF4 JUMPI PUSH1 0x0 DUP1 REVERT JUMPDEST POP PUSH2 0xAA PUSH2 0x103 CALLDATASIZE PUSH1 0x4 PUSH2 0xFC1 JUMP JUMPDEST PUSH2 0x862 JUMP JUMPDEST CALLVALUE DUP1 ISZERO PUSH2 0x114 JUMPI PUSH1 0x0 DUP1 REVERT JUMPDEST POP PUSH2 0x128 PUSH2 0x123 CALLDATASIZE PUSH1 0x4 PUSH2 0xF1B JUMP JUMPDEST PUSH2 0xA5B JUMP JUMPDEST PUSH1 0x40 MLOAD SWAP1 ISZERO ISZERO DUP2 MSTORE PUSH1 0x20 ADD PUSH2 0xB7 JUMP JUMPDEST PUSH2 0x93 PUSH2 0x146 CALLDATASIZE PUSH1 0x4 PUSH2 0xF1B JUMP JUMPDEST PUSH2 0xB33 JUMP JUMPDEST CALLVALUE DUP1 ISZERO PUSH2 0x157 JUMPI PUSH1 0x0 DUP1 REVERT JUMPDEST POP PUSH2 0xAA PUSH2 0xC8A JUMP JUMPDEST PUSH1 0x2 PUSH1 0x0 SLOAD EQ ISZERO PUSH2 0x18C JUMPI PUSH1 0x40 MLOAD PUSH3 0x461BCD PUSH1 0xE5 SHL DUP2 MSTORE PUSH1 0x4 ADD PUSH2 0x183 SWAP1 PUSH2 0x109C JUMP JUMPDEST PUSH1 0x40 MLOAD DUP1 SWAP2 SUB SWAP1 REVERT JUMPDEST PUSH1 0x2 PUSH1 0x0 SSTORE PUSH20 0xDF3E18D64BC6A983F673AB319CCAE4F1A57C7097 CALLER EQ PUSH2 0x21A JUMPI PUSH1 0x40 MLOAD PUSH3 0x461BCD PUSH1 0xE5 SHL DUP2 MSTORE PUSH1 0x20 PUSH1 0x4 DUP3 ADD MSTORE PUSH1 0x3A PUSH1 0x24 DUP3 ADD MSTORE PUSH32 0x5472616E73616374696F6E2052656A656374656421204163636F756E74204E6F PUSH1 0x44 DUP3 ADD MSTORE PUSH32 0x7420417574686F72697A656420746F20437265617465204E4654000000000000 PUSH1 0x64 DUP3 ADD MSTORE PUSH1 0x84 ADD PUSH2 0x183 JUMP JUMPDEST PUSH2 0x228 PUSH1 0x1 DUP1 SLOAD PUSH1 0x1 ADD SWAP1 SSTORE JUMP JUMPDEST PUSH1 0x0 PUSH2 0x233 PUSH1 0x1 SLOAD SWAP1 JUMP JUMPDEST PUSH1 0x40 DUP1 MLOAD PUSH2 0x100 DUP2 ADD DUP3 MSTORE DUP3 DUP2 MSTORE PUSH1 0x1 PUSH1 0x1 PUSH1 0xA0 SHL SUB DUP1 DUP10 AND PUSH1 0x20 DUP1 DUP5 ADD DUP3 DUP2 MSTORE DUP5 DUP7 ADD DUP12 DUP2 MSTORE PUSH1 0x60 DUP7 ADD DUP12 DUP2 MSTORE PUSH1 0x80 DUP8 ADD DUP12 DUP2 MSTORE CALLER PUSH1 0xA0 DUP10 ADD DUP2 DUP2 MSTORE PUSH1 0x0 PUSH1 0xC0 DUP12 ADD DUP2 DUP2 MSTORE PUSH1 0xE0 DUP13 ADD DUP3 DUP2 MSTORE DUP15 DUP4 MSTORE PUSH1 0x4 SWAP10 DUP11 SWAP1 MSTORE SWAP2 DUP14 SWAP1 KECCAK256 SWAP12 MLOAD DUP13 SSTORE SWAP7 MLOAD PUSH1 0x1 DUP13 ADD DUP1 SLOAD SWAP2 DUP13 AND PUSH1 0x1 PUSH1 0x1 PUSH1 0xA0 SHL SUB NOT SWAP3 DUP4 AND OR SWAP1 SSTORE SWAP6 MLOAD PUSH1 0x2 DUP13 ADD SSTORE SWAP4 MLOAD PUSH1 0x3 DUP12 ADD SSTORE SWAP2 MLOAD DUP10 DUP8 ADD SSTORE SWAP1 MLOAD PUSH1 0x5 DUP10 ADD DUP1 SLOAD SWAP2 DUP10 AND SWAP2 SWAP1 SWAP5 AND OR SWAP1 SWAP3 SSTORE SWAP2 MLOAD PUSH1 0x6 SWAP1 SWAP7 ADD DUP1 SLOAD SWAP3 MLOAD ISZERO ISZERO PUSH1 0x1 PUSH1 0xA0 SHL MUL PUSH1 0x1 PUSH1 0x1 PUSH1 0xA8 SHL SUB NOT SWAP1 SWAP4 AND SWAP7 SWAP1 SWAP6 AND SWAP6 SWAP1 SWAP6 OR OR SWAP1 SWAP3 SSTORE SWAP3 MLOAD PUSH4 0x23B872DD PUSH1 0xE0 SHL DUP2 MSTORE SWAP4 SWAP5 POP SWAP2 SWAP3 PUSH4 0x23B872DD SWAP3 PUSH2 0x323 SWAP3 SWAP2 ADDRESS SWAP2 DUP11 SWAP2 ADD PUSH2 0xFD9 JUMP JUMPDEST PUSH1 0x0 PUSH1 0x40 MLOAD DUP1 DUP4 SUB DUP2 PUSH1 0x0 DUP8 DUP1 EXTCODESIZE ISZERO DUP1 ISZERO PUSH2 0x33D JUMPI PUSH1 0x0 DUP1 REVERT JUMPDEST POP GAS CALL ISZERO DUP1 ISZERO PUSH2 0x351 JUMPI RETURNDATASIZE PUSH1 0x0 DUP1 RETURNDATACOPY RETURNDATASIZE PUSH1 0x0 REVERT JUMPDEST POP POP PUSH1 0x40 DUP1 MLOAD DUP7 DUP2 MSTORE PUSH1 0x20 DUP2 ADD DUP7 SWAP1 MSTORE CALLER DUP2 DUP4 ADD MSTORE PUSH1 0x0 PUSH1 0x60 DUP3 ADD DUP2 SWAP1 MSTORE PUSH1 0x80 DUP3 ADD MSTORE SWAP1 MLOAD DUP8 SWAP4 POP PUSH1 0x1 PUSH1 0x1 PUSH1 0xA0 SHL SUB DUP10 AND SWAP3 POP DUP5 SWAP2 PUSH32 0xCFC209ED431E2F0C54248E4008C259E3A981BBFFC299183FD4F93DC2E8CAD282 SWAP2 SWAP1 DUP2 SWAP1 SUB PUSH1 0xA0 ADD SWAP1 LOG4 POP POP PUSH1 0x1 PUSH1 0x0 SSTORE POP POP POP JUMP JUMPDEST PUSH1 0x60 PUSH1 0x0 PUSH2 0x3CB PUSH1 0x1 SLOAD SWAP1 JUMP JUMPDEST SWAP1 POP PUSH1 0x0 PUSH2 0x3D8 PUSH1 0x2 SLOAD SWAP1 JUMP JUMPDEST PUSH1 0x1 SLOAD PUSH2 0x3E5 SWAP2 SWAP1 PUSH2 0x10EB JUMP JUMPDEST SWAP1 POP PUSH1 0x0 DUP1 DUP3 PUSH8 0xFFFFFFFFFFFFFFFF DUP2 GT ISZERO PUSH2 0x411 JUMPI PUSH4 0x4E487B71 PUSH1 0xE0 SHL PUSH1 0x0 MSTORE PUSH1 0x41 PUSH1 0x4 MSTORE PUSH1 0x24 PUSH1 0x0 REVERT JUMPDEST PUSH1 0x40 MLOAD SWAP1 DUP1 DUP3 MSTORE DUP1 PUSH1 0x20 MUL PUSH1 0x20 ADD DUP3 ADD PUSH1 0x40 MSTORE DUP1 ISZERO PUSH2 0x44A JUMPI DUP2 PUSH1 0x20 ADD JUMPDEST PUSH2 0x437 PUSH2 0xE96 JUMP JUMPDEST DUP2 MSTORE PUSH1 0x20 ADD SWAP1 PUSH1 0x1 SWAP1 SUB SWAP1 DUP2 PUSH2 0x42F JUMPI SWAP1 POP JUMPDEST POP SWAP1 POP PUSH1 0x0 JUMPDEST DUP5 DUP2 LT ISZERO PUSH2 0x57E JUMPI PUSH1 0x0 PUSH1 0x4 DUP2 PUSH2 0x468 DUP5 PUSH1 0x1 PUSH2 0x10D3 JUMP JUMPDEST DUP2 MSTORE PUSH1 0x20 DUP2 ADD SWAP2 SWAP1 SWAP2 MSTORE PUSH1 0x40 ADD PUSH1 0x0 KECCAK256 PUSH1 0x6 ADD SLOAD PUSH1 0x1 PUSH1 0x1 PUSH1 0xA0 SHL SUB AND EQ ISZERO PUSH2 0x56C JUMPI PUSH1 0x0 PUSH1 0x4 DUP2 PUSH2 0x49B DUP5 PUSH1 0x1 PUSH2 0x10D3 JUMP JUMPDEST DUP2 MSTORE PUSH1 0x20 DUP1 DUP3 ADD SWAP3 SWAP1 SWAP3 MSTORE PUSH1 0x40 SWAP1 DUP2 ADD PUSH1 0x0 SWAP1 DUP2 KECCAK256 SLOAD DUP1 DUP3 MSTORE PUSH1 0x4 DUP1 DUP6 MSTORE SWAP2 DUP4 SWAP1 KECCAK256 DUP4 MLOAD PUSH2 0x100 DUP2 ADD DUP6 MSTORE DUP2 SLOAD DUP2 MSTORE PUSH1 0x1 DUP3 ADD SLOAD PUSH1 0x1 PUSH1 0x1 PUSH1 0xA0 SHL SUB SWAP1 DUP2 AND SWAP7 DUP3 ADD SWAP7 SWAP1 SWAP7 MSTORE PUSH1 0x2 DUP3 ADD SLOAD SWAP5 DUP2 ADD SWAP5 SWAP1 SWAP5 MSTORE PUSH1 0x3 DUP2 ADD SLOAD PUSH1 0x60 DUP6 ADD MSTORE SWAP2 DUP3 ADD SLOAD PUSH1 0x80 DUP5 ADD MSTORE PUSH1 0x5 DUP3 ADD SLOAD DUP5 AND PUSH1 0xA0 DUP5 ADD MSTORE PUSH1 0x6 DUP3 ADD SLOAD SWAP4 DUP5 AND PUSH1 0xC0 DUP5 ADD MSTORE PUSH1 0x1 PUSH1 0xA0 SHL SWAP1 SWAP4 DIV PUSH1 0xFF AND ISZERO ISZERO PUSH1 0xE0 DUP4 ADD MSTORE DUP6 MLOAD SWAP3 SWAP4 POP SWAP2 DUP6 SWAP1 DUP8 SWAP1 DUP2 LT PUSH2 0x551 JUMPI PUSH4 0x4E487B71 PUSH1 0xE0 SHL PUSH1 0x0 MSTORE PUSH1 0x32 PUSH1 0x4 MSTORE PUSH1 0x24 PUSH1 0x0 REVERT JUMPDEST PUSH1 0x20 SWAP1 DUP2 MUL SWAP2 SWAP1 SWAP2 ADD ADD MSTORE PUSH2 0x567 PUSH1 0x1 DUP7 PUSH2 0x10D3 JUMP JUMPDEST SWAP5 POP POP POP JUMPDEST DUP1 PUSH2 0x576 DUP2 PUSH2 0x1102 JUMP JUMPDEST SWAP2 POP POP PUSH2 0x450 JUMP JUMPDEST POP SWAP5 SWAP4 POP POP POP POP JUMP JUMPDEST PUSH1 0x2 PUSH1 0x0 SLOAD EQ ISZERO PUSH2 0x5AA JUMPI PUSH1 0x40 MLOAD PUSH3 0x461BCD PUSH1 0xE5 SHL DUP2 MSTORE PUSH1 0x4 ADD PUSH2 0x183 SWAP1 PUSH2 0x109C JUMP JUMPDEST PUSH1 0x2 PUSH1 0x0 DUP2 DUP2 SSTORE DUP4 DUP2 MSTORE PUSH1 0x4 PUSH1 0x20 DUP2 SWAP1 MSTORE PUSH1 0x40 SWAP2 DUP3 SWAP1 KECCAK256 SWAP1 SWAP3 ADD SLOAD SWAP1 MLOAD PUSH4 0x23B872DD PUSH1 0xE0 SHL DUP2 MSTORE SWAP1 SWAP2 PUSH1 0x1 PUSH1 0x1 PUSH1 0xA0 SHL SUB DUP7 AND SWAP2 PUSH4 0x23B872DD SWAP2 PUSH2 0x5F4 SWAP2 CALLER SWAP2 DUP8 SWAP2 DUP8 SWAP2 ADD PUSH2 0xFD9 JUMP JUMPDEST PUSH1 0x0 PUSH1 0x40 MLOAD DUP1 DUP4 SUB DUP2 PUSH1 0x0 DUP8 DUP1 EXTCODESIZE ISZERO DUP1 ISZERO PUSH2 0x60E JUMPI PUSH1 0x0 DUP1 REVERT JUMPDEST POP GAS CALL ISZERO DUP1 ISZERO PUSH2 0x622 JUMPI RETURNDATASIZE PUSH1 0x0 DUP1 RETURNDATACOPY RETURNDATASIZE PUSH1 0x0 REVERT JUMPDEST POP POP POP PUSH1 0x0 SWAP4 DUP5 MSTORE POP POP PUSH1 0x4 PUSH1 0x20 MSTORE PUSH1 0x40 DUP3 KECCAK256 PUSH1 0x6 ADD DUP1 SLOAD PUSH1 0x1 PUSH1 0x1 PUSH1 0xA0 SHL SUB NOT AND PUSH1 0x1 PUSH1 0x1 PUSH1 0xA0 SHL SUB SWAP3 SWAP1 SWAP3 AND SWAP2 SWAP1 SWAP2 OR SWAP1 SSTORE PUSH1 0x1 SWAP1 SSTORE POP JUMP JUMPDEST PUSH1 0x60 PUSH1 0x0 PUSH2 0x66A PUSH1 0x1 SLOAD SWAP1 JUMP JUMPDEST SWAP1 POP PUSH1 0x0 DUP1 PUSH1 0x0 JUMPDEST DUP4 DUP2 LT ISZERO PUSH2 0x6CB JUMPI CALLER PUSH1 0x4 PUSH1 0x0 PUSH2 0x68A DUP5 PUSH1 0x1 PUSH2 0x10D3 JUMP JUMPDEST DUP2 MSTORE PUSH1 0x20 DUP2 ADD SWAP2 SWAP1 SWAP2 MSTORE PUSH1 0x40 ADD PUSH1 0x0 KECCAK256 PUSH1 0x6 ADD SLOAD PUSH1 0x1 PUSH1 0x1 PUSH1 0xA0 SHL SUB AND EQ ISZERO PUSH2 0x6BB JUMPI PUSH2 0x6B8 PUSH1 0x1 DUP5 PUSH2 0x10D3 JUMP JUMPDEST SWAP3 POP JUMPDEST PUSH2 0x6C4 DUP2 PUSH2 0x1102 JUMP JUMPDEST SWAP1 POP PUSH2 0x672 JUMP JUMPDEST POP PUSH1 0x0 DUP3 PUSH8 0xFFFFFFFFFFFFFFFF DUP2 GT ISZERO PUSH2 0x6F5 JUMPI PUSH4 0x4E487B71 PUSH1 0xE0 SHL PUSH1 0x0 MSTORE PUSH1 0x41 PUSH1 0x4 MSTORE PUSH1 0x24 PUSH1 0x0 REVERT JUMPDEST PUSH1 0x40 MLOAD SWAP1 DUP1 DUP3 MSTORE DUP1 PUSH1 0x20 MUL PUSH1 0x20 ADD DUP3 ADD PUSH1 0x40 MSTORE DUP1 ISZERO PUSH2 0x72E JUMPI DUP2 PUSH1 0x20 ADD JUMPDEST PUSH2 0x71B PUSH2 0xE96 JUMP JUMPDEST DUP2 MSTORE PUSH1 0x20 ADD SWAP1 PUSH1 0x1 SWAP1 SUB SWAP1 DUP2 PUSH2 0x713 JUMPI SWAP1 POP JUMPDEST POP SWAP1 POP PUSH1 0x0 JUMPDEST DUP5 DUP2 LT ISZERO PUSH2 0x57E JUMPI CALLER PUSH1 0x4 PUSH1 0x0 PUSH2 0x74C DUP5 PUSH1 0x1 PUSH2 0x10D3 JUMP JUMPDEST DUP2 MSTORE PUSH1 0x20 DUP2 ADD SWAP2 SWAP1 SWAP2 MSTORE PUSH1 0x40 ADD PUSH1 0x0 KECCAK256 PUSH1 0x6 ADD SLOAD PUSH1 0x1 PUSH1 0x1 PUSH1 0xA0 SHL SUB AND EQ ISZERO PUSH2 0x850 JUMPI PUSH1 0x0 PUSH1 0x4 DUP2 PUSH2 0x77F DUP5 PUSH1 0x1 PUSH2 0x10D3 JUMP JUMPDEST DUP2 MSTORE PUSH1 0x20 DUP1 DUP3 ADD SWAP3 SWAP1 SWAP3 MSTORE PUSH1 0x40 SWAP1 DUP2 ADD PUSH1 0x0 SWAP1 DUP2 KECCAK256 SLOAD DUP1 DUP3 MSTORE PUSH1 0x4 DUP1 DUP6 MSTORE SWAP2 DUP4 SWAP1 KECCAK256 DUP4 MLOAD PUSH2 0x100 DUP2 ADD DUP6 MSTORE DUP2 SLOAD DUP2 MSTORE PUSH1 0x1 DUP3 ADD SLOAD PUSH1 0x1 PUSH1 0x1 PUSH1 0xA0 SHL SUB SWAP1 DUP2 AND SWAP7 DUP3 ADD SWAP7 SWAP1 SWAP7 MSTORE PUSH1 0x2 DUP3 ADD SLOAD SWAP5 DUP2 ADD SWAP5 SWAP1 SWAP5 MSTORE PUSH1 0x3 DUP2 ADD SLOAD PUSH1 0x60 DUP6 ADD MSTORE SWAP2 DUP3 ADD SLOAD PUSH1 0x80 DUP5 ADD MSTORE PUSH1 0x5 DUP3 ADD SLOAD DUP5 AND PUSH1 0xA0 DUP5 ADD MSTORE PUSH1 0x6 DUP3 ADD SLOAD SWAP4 DUP5 AND PUSH1 0xC0 DUP5 ADD MSTORE PUSH1 0x1 PUSH1 0xA0 SHL SWAP1 SWAP4 DIV PUSH1 0xFF AND ISZERO ISZERO PUSH1 0xE0 DUP4 ADD MSTORE DUP6 MLOAD SWAP3 SWAP4 POP SWAP2 DUP6 SWAP1 DUP8 SWAP1 DUP2 LT PUSH2 0x835 JUMPI PUSH4 0x4E487B71 PUSH1 0xE0 SHL PUSH1 0x0 MSTORE PUSH1 0x32 PUSH1 0x4 MSTORE PUSH1 0x24 PUSH1 0x0 REVERT JUMPDEST PUSH1 0x20 SWAP1 DUP2 MUL SWAP2 SWAP1 SWAP2 ADD ADD MSTORE PUSH2 0x84B PUSH1 0x1 DUP7 PUSH2 0x10D3 JUMP JUMPDEST SWAP5 POP POP POP JUMPDEST DUP1 PUSH2 0x85A DUP2 PUSH2 0x1102 JUMP JUMPDEST SWAP2 POP POP PUSH2 0x734 JUMP JUMPDEST PUSH1 0x60 PUSH1 0x0 PUSH2 0x86F PUSH1 0x1 SLOAD SWAP1 JUMP JUMPDEST SWAP1 POP PUSH1 0x0 DUP1 PUSH1 0x0 JUMPDEST DUP4 DUP2 LT ISZERO PUSH2 0x8C5 JUMPI DUP6 PUSH1 0x4 PUSH1 0x0 PUSH2 0x88F DUP5 PUSH1 0x1 PUSH2 0x10D3 JUMP JUMPDEST DUP2 MSTORE PUSH1 0x20 ADD SWAP1 DUP2 MSTORE PUSH1 0x20 ADD PUSH1 0x0 KECCAK256 PUSH1 0x4 ADD SLOAD EQ ISZERO PUSH2 0x8B5 JUMPI PUSH2 0x8B2 PUSH1 0x1 DUP5 PUSH2 0x10D3 JUMP JUMPDEST SWAP3 POP JUMPDEST PUSH2 0x8BE DUP2 PUSH2 0x1102 JUMP JUMPDEST SWAP1 POP PUSH2 0x877 JUMP JUMPDEST POP PUSH1 0x0 DUP3 PUSH8 0xFFFFFFFFFFFFFFFF DUP2 GT ISZERO PUSH2 0x8EF JUMPI PUSH4 0x4E487B71 PUSH1 0xE0 SHL PUSH1 0x0 MSTORE PUSH1 0x41 PUSH1 0x4 MSTORE PUSH1 0x24 PUSH1 0x0 REVERT JUMPDEST PUSH1 0x40 MLOAD SWAP1 DUP1 DUP3 MSTORE DUP1 PUSH1 0x20 MUL PUSH1 0x20 ADD DUP3 ADD PUSH1 0x40 MSTORE DUP1 ISZERO PUSH2 0x928 JUMPI DUP2 PUSH1 0x20 ADD JUMPDEST PUSH2 0x915 PUSH2 0xE96 JUMP JUMPDEST DUP2 MSTORE PUSH1 0x20 ADD SWAP1 PUSH1 0x1 SWAP1 SUB SWAP1 DUP2 PUSH2 0x90D JUMPI SWAP1 POP JUMPDEST POP SWAP1 POP PUSH1 0x0 JUMPDEST DUP5 DUP2 LT ISZERO PUSH2 0xA51 JUMPI DUP7 PUSH1 0x4 PUSH1 0x0 PUSH2 0x946 DUP5 PUSH1 0x1 PUSH2 0x10D3 JUMP JUMPDEST DUP2 MSTORE PUSH1 0x20 ADD SWAP1 DUP2 MSTORE PUSH1 0x20 ADD PUSH1 0x0 KECCAK256 PUSH1 0x4 ADD SLOAD EQ ISZERO PUSH2 0xA3F JUMPI PUSH1 0x0 PUSH1 0x4 DUP2 PUSH2 0x96E DUP5 PUSH1 0x1 PUSH2 0x10D3 JUMP JUMPDEST DUP2 MSTORE PUSH1 0x20 DUP1 DUP3 ADD SWAP3 SWAP1 SWAP3 MSTORE PUSH1 0x40 SWAP1 DUP2 ADD PUSH1 0x0 SWAP1 DUP2 KECCAK256 SLOAD DUP1 DUP3 MSTORE PUSH1 0x4 DUP1 DUP6 MSTORE SWAP2 DUP4 SWAP1 KECCAK256 DUP4 MLOAD PUSH2 0x100 DUP2 ADD DUP6 MSTORE DUP2 SLOAD DUP2 MSTORE PUSH1 0x1 DUP3 ADD SLOAD PUSH1 0x1 PUSH1 0x1 PUSH1 0xA0 SHL SUB SWAP1 DUP2 AND SWAP7 DUP3 ADD SWAP7 SWAP1 SWAP7 MSTORE PUSH1 0x2 DUP3 ADD SLOAD SWAP5 DUP2 ADD SWAP5 SWAP1 SWAP5 MSTORE PUSH1 0x3 DUP2 ADD SLOAD PUSH1 0x60 DUP6 ADD MSTORE SWAP2 DUP3 ADD SLOAD PUSH1 0x80 DUP5 ADD MSTORE PUSH1 0x5 DUP3 ADD SLOAD DUP5 AND PUSH1 0xA0 DUP5 ADD MSTORE PUSH1 0x6 DUP3 ADD SLOAD SWAP4 DUP5 AND PUSH1 0xC0 DUP5 ADD MSTORE PUSH1 0x1 PUSH1 0xA0 SHL SWAP1 SWAP4 DIV PUSH1 0xFF AND ISZERO ISZERO PUSH1 0xE0 DUP4 ADD MSTORE DUP6 MLOAD SWAP3 SWAP4 POP SWAP2 DUP6 SWAP1 DUP8 SWAP1 DUP2 LT PUSH2 0xA24 JUMPI PUSH4 0x4E487B71 PUSH1 0xE0 SHL PUSH1 0x0 MSTORE PUSH1 0x32 PUSH1 0x4 MSTORE PUSH1 0x24 PUSH1 0x0 REVERT JUMPDEST PUSH1 0x20 SWAP1 DUP2 MUL SWAP2 SWAP1 SWAP2 ADD ADD MSTORE PUSH2 0xA3A PUSH1 0x1 DUP7 PUSH2 0x10D3 JUMP JUMPDEST SWAP5 POP POP POP JUMPDEST DUP1 PUSH2 0xA49 DUP2 PUSH2 0x1102 JUMP JUMPDEST SWAP2 POP POP PUSH2 0x92E JUMP JUMPDEST POP SWAP6 SWAP5 POP POP POP POP POP JUMP JUMPDEST PUSH1 0x0 DUP2 DUP2 MSTORE PUSH1 0x4 PUSH1 0x20 MSTORE PUSH1 0x40 DUP2 KECCAK256 PUSH1 0x3 ADD SLOAD PUSH2 0xDEAD SWAP1 TIMESTAMP GT ISZERO PUSH2 0xB27 JUMPI PUSH1 0x0 DUP4 DUP2 MSTORE PUSH1 0x4 PUSH1 0x20 DUP2 SWAP1 MSTORE PUSH1 0x40 SWAP2 DUP3 SWAP1 KECCAK256 PUSH1 0x2 ADD SLOAD SWAP2 MLOAD PUSH4 0x23B872DD PUSH1 0xE0 SHL DUP2 MSTORE PUSH1 0x1 PUSH1 0x1 PUSH1 0xA0 SHL SUB DUP8 AND SWAP2 PUSH4 0x23B872DD SWAP2 PUSH2 0xABB SWAP2 CALLER SWAP2 DUP8 SWAP2 DUP8 SWAP2 ADD PUSH2 0xFD9 JUMP JUMPDEST PUSH1 0x0 PUSH1 0x40 MLOAD DUP1 DUP4 SUB DUP2 PUSH1 0x0 DUP8 DUP1 EXTCODESIZE ISZERO DUP1 ISZERO PUSH2 0xAD5 JUMPI PUSH1 0x0 DUP1 REVERT JUMPDEST POP GAS CALL ISZERO DUP1 ISZERO PUSH2 0xAE9 JUMPI RETURNDATASIZE PUSH1 0x0 DUP1 RETURNDATACOPY RETURNDATASIZE PUSH1 0x0 REVERT JUMPDEST POP POP POP PUSH1 0x0 DUP6 DUP2 MSTORE PUSH1 0x4 PUSH1 0x20 MSTORE PUSH1 0x40 DUP2 KECCAK256 PUSH1 0x6 ADD DUP1 SLOAD PUSH1 0x1 PUSH1 0x1 PUSH1 0xA0 SHL SUB NOT AND PUSH1 0x1 PUSH1 0x1 PUSH1 0xA0 SHL SUB SWAP6 SWAP1 SWAP6 AND SWAP5 SWAP1 SWAP5 OR SWAP1 SWAP4 SSTORE POP SWAP1 SWAP2 POP PUSH2 0xB2D SWAP1 POP JUMP JUMPDEST PUSH1 0x1 SWAP2 POP POP JUMPDEST SWAP3 SWAP2 POP POP JUMP JUMPDEST PUSH1 0x2 PUSH1 0x0 SLOAD EQ ISZERO PUSH2 0xB56 JUMPI PUSH1 0x40 MLOAD PUSH3 0x461BCD PUSH1 0xE5 SHL DUP2 MSTORE PUSH1 0x4 ADD PUSH2 0x183 SWAP1 PUSH2 0x109C JUMP JUMPDEST PUSH1 0x2 PUSH1 0x0 DUP2 DUP2 SSTORE DUP3 DUP2 MSTORE PUSH1 0x4 PUSH1 0x20 DUP2 SWAP1 MSTORE PUSH1 0x40 SWAP2 DUP3 SWAP1 KECCAK256 SWAP1 SWAP3 ADD SLOAD SWAP1 MLOAD PUSH4 0x31A9108F PUSH1 0xE1 SHL DUP2 MSTORE SWAP2 DUP3 ADD DUP2 SWAP1 MSTORE SWAP1 PUSH1 0x1 PUSH1 0x1 PUSH1 0xA0 SHL SUB DUP5 AND SWAP1 PUSH4 0x23B872DD SWAP1 DUP3 SWAP1 PUSH4 0x6352211E SWAP1 PUSH1 0x24 ADD PUSH1 0x20 PUSH1 0x40 MLOAD DUP1 DUP4 SUB DUP2 DUP7 DUP1 EXTCODESIZE ISZERO DUP1 ISZERO PUSH2 0xBB8 JUMPI PUSH1 0x0 DUP1 REVERT JUMPDEST POP GAS STATICCALL ISZERO DUP1 ISZERO PUSH2 0xBCC JUMPI RETURNDATASIZE PUSH1 0x0 DUP1 RETURNDATACOPY RETURNDATASIZE PUSH1 0x0 REVERT JUMPDEST POP POP POP POP PUSH1 0x40 MLOAD RETURNDATASIZE PUSH1 0x1F NOT PUSH1 0x1F DUP3 ADD AND DUP3 ADD DUP1 PUSH1 0x40 MSTORE POP DUP2 ADD SWAP1 PUSH2 0xBF0 SWAP2 SWAP1 PUSH2 0xEF8 JUMP JUMPDEST CALLER DUP5 PUSH1 0x40 MLOAD DUP5 PUSH4 0xFFFFFFFF AND PUSH1 0xE0 SHL DUP2 MSTORE PUSH1 0x4 ADD PUSH2 0xC10 SWAP4 SWAP3 SWAP2 SWAP1 PUSH2 0xFD9 JUMP JUMPDEST PUSH1 0x0 PUSH1 0x40 MLOAD DUP1 DUP4 SUB DUP2 PUSH1 0x0 DUP8 DUP1 EXTCODESIZE ISZERO DUP1 ISZERO PUSH2 0xC2A JUMPI PUSH1 0x0 DUP1 REVERT JUMPDEST POP GAS CALL ISZERO DUP1 ISZERO PUSH2 0xC3E JUMPI RETURNDATASIZE PUSH1 0x0 DUP1 RETURNDATACOPY RETURNDATASIZE PUSH1 0x0 REVERT JUMPDEST POP POP POP PUSH1 0x0 DUP4 DUP2 MSTORE PUSH1 0x4 PUSH1 0x20 MSTORE PUSH1 0x40 SWAP1 KECCAK256 PUSH1 0x6 ADD DUP1 SLOAD PUSH1 0xFF PUSH1 0xA0 SHL NOT CALLER AND PUSH1 0x1 PUSH1 0x1 PUSH1 0xA8 SHL SUB NOT SWAP1 SWAP2 AND OR PUSH1 0x1 PUSH1 0xA0 SHL OR SWAP1 SSTORE POP PUSH2 0xC80 PUSH1 0x2 DUP1 SLOAD PUSH1 0x1 ADD SWAP1 SSTORE JUMP JUMPDEST POP POP PUSH1 0x1 PUSH1 0x0 SSTORE POP JUMP JUMPDEST PUSH1 0x60 PUSH1 0x0 PUSH2 0xC97 PUSH1 0x1 SLOAD SWAP1 JUMP JUMPDEST SWAP1 POP PUSH1 0x0 DUP1 PUSH1 0x0 JUMPDEST DUP4 DUP2 LT ISZERO PUSH2 0xCF8 JUMPI CALLER PUSH1 0x4 PUSH1 0x0 PUSH2 0xCB7 DUP5 PUSH1 0x1 PUSH2 0x10D3 JUMP JUMPDEST DUP2 MSTORE PUSH1 0x20 DUP2 ADD SWAP2 SWAP1 SWAP2 MSTORE PUSH1 0x40 ADD PUSH1 0x0 KECCAK256 PUSH1 0x5 ADD SLOAD PUSH1 0x1 PUSH1 0x1 PUSH1 0xA0 SHL SUB AND EQ ISZERO PUSH2 0xCE8 JUMPI PUSH2 0xCE5 PUSH1 0x1 DUP5 PUSH2 0x10D3 JUMP JUMPDEST SWAP3 POP JUMPDEST PUSH2 0xCF1 DUP2 PUSH2 0x1102 JUMP JUMPDEST SWAP1 POP PUSH2 0xC9F JUMP JUMPDEST POP PUSH1 0x0 DUP3 PUSH8 0xFFFFFFFFFFFFFFFF DUP2 GT ISZERO PUSH2 0xD22 JUMPI PUSH4 0x4E487B71 PUSH1 0xE0 SHL PUSH1 0x0 MSTORE PUSH1 0x41 PUSH1 0x4 MSTORE PUSH1 0x24 PUSH1 0x0 REVERT JUMPDEST PUSH1 0x40 MLOAD SWAP1 DUP1 DUP3 MSTORE DUP1 PUSH1 0x20 MUL PUSH1 0x20 ADD DUP3 ADD PUSH1 0x40 MSTORE DUP1 ISZERO PUSH2 0xD5B JUMPI DUP2 PUSH1 0x20 ADD JUMPDEST PUSH2 0xD48 PUSH2 0xE96 JUMP JUMPDEST DUP2 MSTORE PUSH1 0x20 ADD SWAP1 PUSH1 0x1 SWAP1 SUB SWAP1 DUP2 PUSH2 0xD40 JUMPI SWAP1 POP JUMPDEST POP SWAP1 POP PUSH1 0x0 JUMPDEST DUP5 DUP2 LT ISZERO PUSH2 0x57E JUMPI PUSH1 0x4 PUSH1 0x0 PUSH2 0xD78 DUP4 PUSH1 0x1 PUSH2 0x10D3 JUMP JUMPDEST DUP2 MSTORE PUSH1 0x20 ADD SWAP1 DUP2 MSTORE PUSH1 0x20 ADD PUSH1 0x0 KECCAK256 PUSH1 0x6 ADD PUSH1 0x14 SWAP1 SLOAD SWAP1 PUSH2 0x100 EXP SWAP1 DIV PUSH1 0xFF AND ISZERO ISZERO PUSH1 0x1 ISZERO ISZERO EQ ISZERO PUSH2 0xE84 JUMPI PUSH1 0x0 PUSH1 0x4 DUP2 PUSH2 0xDB3 DUP5 PUSH1 0x1 PUSH2 0x10D3 JUMP JUMPDEST DUP2 MSTORE PUSH1 0x20 DUP1 DUP3 ADD SWAP3 SWAP1 SWAP3 MSTORE PUSH1 0x40 SWAP1 DUP2 ADD PUSH1 0x0 SWAP1 DUP2 KECCAK256 SLOAD DUP1 DUP3 MSTORE PUSH1 0x4 DUP1 DUP6 MSTORE SWAP2 DUP4 SWAP1 KECCAK256 DUP4 MLOAD PUSH2 0x100 DUP2 ADD DUP6 MSTORE DUP2 SLOAD DUP2 MSTORE PUSH1 0x1 DUP3 ADD SLOAD PUSH1 0x1 PUSH1 0x1 PUSH1 0xA0 SHL SUB SWAP1 DUP2 AND SWAP7 DUP3 ADD SWAP7 SWAP1 SWAP7 MSTORE PUSH1 0x2 DUP3 ADD SLOAD SWAP5 DUP2 ADD SWAP5 SWAP1 SWAP5 MSTORE PUSH1 0x3 DUP2 ADD SLOAD PUSH1 0x60 DUP6 ADD MSTORE SWAP2 DUP3 ADD SLOAD PUSH1 0x80 DUP5 ADD MSTORE PUSH1 0x5 DUP3 ADD SLOAD DUP5 AND PUSH1 0xA0 DUP5 ADD MSTORE PUSH1 0x6 DUP3 ADD SLOAD SWAP4 DUP5 AND PUSH1 0xC0 DUP5 ADD MSTORE PUSH1 0x1 PUSH1 0xA0 SHL SWAP1 SWAP4 DIV PUSH1 0xFF AND ISZERO ISZERO PUSH1 0xE0 DUP4 ADD MSTORE DUP6 MLOAD SWAP3 SWAP4 POP SWAP2 DUP6 SWAP1 DUP8 SWAP1 DUP2 LT PUSH2 0xE69 JUMPI PUSH4 0x4E487B71 PUSH1 0xE0 SHL PUSH1 0x0 MSTORE PUSH1 0x32 PUSH1 0x4 MSTORE PUSH1 0x24 PUSH1 0x0 REVERT JUMPDEST PUSH1 0x20 SWAP1 DUP2 MUL SWAP2 SWAP1 SWAP2 ADD ADD MSTORE PUSH2 0xE7F PUSH1 0x1 DUP7 PUSH2 0x10D3 JUMP JUMPDEST SWAP5 POP POP POP JUMPDEST DUP1 PUSH2 0xE8E DUP2 PUSH2 0x1102 JUMP JUMPDEST SWAP2 POP POP PUSH2 0xD61 JUMP JUMPDEST PUSH1 0x40 MLOAD DUP1 PUSH2 0x100 ADD PUSH1 0x40 MSTORE DUP1 PUSH1 0x0 DUP2 MSTORE PUSH1 0x20 ADD PUSH1 0x0 PUSH1 0x1 PUSH1 0x1 PUSH1 0xA0 SHL SUB AND DUP2 MSTORE PUSH1 0x20 ADD PUSH1 0x0 DUP2 MSTORE PUSH1 0x20 ADD PUSH1 0x0 DUP2 MSTORE PUSH1 0x20 ADD PUSH1 0x0 DUP2 MSTORE PUSH1 0x20 ADD PUSH1 0x0 PUSH1 0x1 PUSH1 0x1 PUSH1 0xA0 SHL SUB AND DUP2 MSTORE PUSH1 0x20 ADD PUSH1 0x0 PUSH1 0x1 PUSH1 0x1 PUSH1 0xA0 SHL SUB AND DUP2 MSTORE PUSH1 0x20 ADD PUSH1 0x0 ISZERO ISZERO DUP2 MSTORE POP SWAP1 JUMP JUMPDEST PUSH1 0x0 PUSH1 0x20 DUP3 DUP5 SUB SLT ISZERO PUSH2 0xF09 JUMPI DUP1 DUP2 REVERT JUMPDEST DUP2 MLOAD PUSH2 0xF14 DUP2 PUSH2 0x1133 JUMP JUMPDEST SWAP4 SWAP3 POP POP POP JUMP JUMPDEST PUSH1 0x0 DUP1 PUSH1 0x40 DUP4 DUP6 SUB SLT ISZERO PUSH2 0xF2D JUMPI DUP1 DUP2 REVERT JUMPDEST DUP3 CALLDATALOAD PUSH2 0xF38 DUP2 PUSH2 0x1133 JUMP JUMPDEST SWAP5 PUSH1 0x20 SWAP4 SWAP1 SWAP4 ADD CALLDATALOAD SWAP4 POP POP POP JUMP JUMPDEST PUSH1 0x0 DUP1 PUSH1 0x0 PUSH1 0x60 DUP5 DUP7 SUB SLT ISZERO PUSH2 0xF5A JUMPI DUP1 DUP2 REVERT JUMPDEST DUP4 CALLDATALOAD PUSH2 0xF65 DUP2 PUSH2 0x1133 JUMP JUMPDEST SWAP3 POP PUSH1 0x20 DUP5 ADD CALLDATALOAD SWAP2 POP PUSH1 0x40 DUP5 ADD CALLDATALOAD PUSH2 0xF7C DUP2 PUSH2 0x1133 JUMP JUMPDEST DUP1 SWAP2 POP POP SWAP3 POP SWAP3 POP SWAP3 JUMP JUMPDEST PUSH1 0x0 DUP1 PUSH1 0x0 DUP1 PUSH1 0x80 DUP6 DUP8 SUB SLT ISZERO PUSH2 0xF9C JUMPI DUP1 DUP2 REVERT JUMPDEST DUP5 CALLDATALOAD PUSH2 0xFA7 DUP2 PUSH2 0x1133 JUMP JUMPDEST SWAP7 PUSH1 0x20 DUP7 ADD CALLDATALOAD SWAP7 POP PUSH1 0x40 DUP7 ADD CALLDATALOAD SWAP6 PUSH1 0x60 ADD CALLDATALOAD SWAP5 POP SWAP3 POP POP POP JUMP JUMPDEST PUSH1 0x0 PUSH1 0x20 DUP3 DUP5 SUB SLT ISZERO PUSH2 0xFD2 JUMPI DUP1 DUP2 REVERT JUMPDEST POP CALLDATALOAD SWAP2 SWAP1 POP JUMP JUMPDEST PUSH1 0x1 PUSH1 0x1 PUSH1 0xA0 SHL SUB SWAP4 DUP5 AND DUP2 MSTORE SWAP2 SWAP1 SWAP3 AND PUSH1 0x20 DUP3 ADD MSTORE PUSH1 0x40 DUP2 ADD SWAP2 SWAP1 SWAP2 MSTORE PUSH1 0x60 ADD SWAP1 JUMP JUMPDEST PUSH1 0x20 DUP1 DUP3 MSTORE DUP3 MLOAD DUP3 DUP3 ADD DUP2 SWAP1 MSTORE PUSH1 0x0 SWAP2 SWAP1 PUSH1 0x40 SWAP1 DUP2 DUP6 ADD SWAP1 DUP7 DUP5 ADD DUP6 JUMPDEST DUP3 DUP2 LT ISZERO PUSH2 0x108F JUMPI DUP2 MLOAD DUP1 MLOAD DUP6 MSTORE DUP7 DUP2 ADD MLOAD PUSH1 0x1 PUSH1 0x1 PUSH1 0xA0 SHL SUB SWAP1 DUP2 AND DUP9 DUP8 ADD MSTORE DUP7 DUP3 ADD MLOAD DUP8 DUP8 ADD MSTORE PUSH1 0x60 DUP1 DUP4 ADD MLOAD SWAP1 DUP8 ADD MSTORE PUSH1 0x80 DUP1 DUP4 ADD MLOAD SWAP1 DUP8 ADD MSTORE PUSH1 0xA0 DUP1 DUP4 ADD MLOAD DUP3 AND SWAP1 DUP8 ADD MSTORE PUSH1 0xC0 DUP1 DUP4 ADD MLOAD SWAP1 SWAP2 AND SWAP1 DUP7 ADD MSTORE PUSH1 0xE0 SWAP1 DUP2 ADD MLOAD ISZERO ISZERO SWAP1 DUP6 ADD MSTORE PUSH2 0x100 SWAP1 SWAP4 ADD SWAP3 SWAP1 DUP6 ADD SWAP1 PUSH1 0x1 ADD PUSH2 0x101A JUMP JUMPDEST POP SWAP2 SWAP8 SWAP7 POP POP POP POP POP POP POP JUMP JUMPDEST PUSH1 0x20 DUP1 DUP3 MSTORE PUSH1 0x1F SWAP1 DUP3 ADD MSTORE PUSH32 0x5265656E7472616E637947756172643A207265656E7472616E742063616C6C00 PUSH1 0x40 DUP3 ADD MSTORE PUSH1 0x60 ADD SWAP1 JUMP JUMPDEST PUSH1 0x0 DUP3 NOT DUP3 GT ISZERO PUSH2 0x10E6 JUMPI PUSH2 0x10E6 PUSH2 0x111D JUMP JUMPDEST POP ADD SWAP1 JUMP JUMPDEST PUSH1 0x0 DUP3 DUP3 LT ISZERO PUSH2 0x10FD JUMPI PUSH2 0x10FD PUSH2 0x111D JUMP JUMPDEST POP SUB SWAP1 JUMP JUMPDEST PUSH1 0x0 PUSH1 0x0 NOT DUP3 EQ ISZERO PUSH2 0x1116 JUMPI PUSH2 0x1116 PUSH2 0x111D JUMP JUMPDEST POP PUSH1 0x1 ADD SWAP1 JUMP JUMPDEST PUSH4 0x4E487B71 PUSH1 0xE0 SHL PUSH1 0x0 MSTORE PUSH1 0x11 PUSH1 0x4 MSTORE PUSH1 0x24 PUSH1 0x0 REVERT JUMPDEST PUSH1 0x1 PUSH1 0x1 PUSH1 0xA0 SHL SUB DUP2 AND DUP2 EQ PUSH2 0x1148 JUMPI PUSH1 0x0 DUP1 REVERT JUMPDEST POP JUMP INVALID LOG2 PUSH5 0x6970667358 0x22 SLT KECCAK256 NUMBER SWAP10 DUP2 0xC8 OR STOP PUSH8 0xBAE2A3226B5251E4 STATICCALL 0xEC PUSH20 0xC33434ED7C6C20171B1DEFBA4BC364736F6C6343 STOP ADDMOD DIV STOP CALLER "
        },
        "methodIdentifiers": {
          "checkOwner(uint256)": "9870dce0",
          "claimWarranty(address,uint256)": "a62d7415",
          "createMarketSale(address,uint256)": "c23b139e",
          "createWarrantyItem(address,uint256,uint256,uint256)": "033a9d78",
          "fetchActivatedWarranty()": "c2adfcec",
          "fetchMyWarranty()": "4294df71",
          "fetchWarranty()": "3ab18372",
          "transferWarranty(address,uint256,address)": "3c28f8bb"
        }
      }
    }
  }
}