{
  "_format": "hh-sol-artifact-1",
  "contractName": "NFTMarket",
  "sourceName": "contracts/NFTMarket.sol",
  "abi": [
    {
      "inputs": [],
      "stateMutability": "nonpayable",
      "type": "constructor"
    },
    {
      "anonymous": false,
      "inputs": [
        {
          "indexed": true,
          "internalType": "uint256",
          "name": "itemId",
          "type": "uint256"
        },
        {
          "indexed": true,
          "internalType": "address",
          "name": "nftWarranty",
          "type": "address"
        },
        {
          "indexed": true,
          "internalType": "uint256",
          "name": "tokenId",
          "type": "uint256"
        },
        {
          "indexed": false,
          "internalType": "uint256",
          "name": "period",
          "type": "uint256"
        },
        {
          "indexed": false,
          "internalType": "uint256",
          "name": "pno",
          "type": "uint256"
        },
        {
          "indexed": false,
          "internalType": "address",
          "name": "seller",
          "type": "address"
        },
        {
          "indexed": false,
          "internalType": "address",
          "name": "owner",
          "type": "address"
        },
        {
          "indexed": false,
          "internalType": "uint256",
          "name": "claim",
          "type": "uint256"
        },
        {
          "indexed": false,
          "internalType": "bool",
          "name": "activated",
          "type": "bool"
        }
      ],
      "name": "WarrantyCreated",
      "type": "event"
    },
    {
      "inputs": [
        {
          "internalType": "uint256",
          "name": "prodno",
          "type": "uint256"
        }
      ],
      "name": "checkOwner",
      "outputs": [
        {
          "components": [
            {
              "internalType": "uint256",
              "name": "itemId",
              "type": "uint256"
            },
            {
              "internalType": "address",
              "name": "nftWarranty",
              "type": "address"
            },
            {
              "internalType": "uint256",
              "name": "tokenId",
              "type": "uint256"
            },
            {
              "internalType": "uint256",
              "name": "period",
              "type": "uint256"
            },
            {
              "internalType": "uint256",
              "name": "pno",
              "type": "uint256"
            },
            {
              "internalType": "address payable",
              "name": "seller",
              "type": "address"
            },
            {
              "internalType": "address payable",
              "name": "owner",
              "type": "address"
            },
            {
              "internalType": "uint256",
              "name": "claim",
              "type": "uint256"
            },
            {
              "internalType": "bool",
              "name": "activated",
              "type": "bool"
            }
          ],
          "internalType": "struct NFTMarket.WarrantyItem[]",
          "name": "",
          "type": "tuple[]"
        }
      ],
      "stateMutability": "view",
      "type": "function"
    },
    {
      "inputs": [
        {
          "internalType": "address",
          "name": "nftWarranty",
          "type": "address"
        },
        {
          "internalType": "uint256",
          "name": "itemId",
          "type": "uint256"
        }
      ],
      "name": "claimWarranty",
      "outputs": [
        {
          "internalType": "bool",
          "name": "",
          "type": "bool"
        }
      ],
      "stateMutability": "nonpayable",
      "type": "function"
    },
    {
      "inputs": [
        {
          "internalType": "address",
          "name": "nftWarranty",
          "type": "address"
        },
        {
          "internalType": "uint256",
          "name": "itemId",
          "type": "uint256"
        }
      ],
      "name": "createMarketSale",
      "outputs": [],
      "stateMutability": "payable",
      "type": "function"
    },
    {
      "inputs": [
        {
          "internalType": "address",
          "name": "nftWarranty",
          "type": "address"
        },
        {
          "internalType": "uint256",
          "name": "tokenId",
          "type": "uint256"
        },
        {
          "internalType": "uint256",
          "name": "period",
          "type": "uint256"
        },
        {
          "internalType": "uint256",
          "name": "pno",
          "type": "uint256"
        }
      ],
      "name": "createWarrantyItem",
      "outputs": [],
      "stateMutability": "payable",
      "type": "function"
    },
    {
      "inputs": [],
      "name": "fetchActivatedWarranty",
      "outputs": [
        {
          "components": [
            {
              "internalType": "uint256",
              "name": "itemId",
              "type": "uint256"
            },
            {
              "internalType": "address",
              "name": "nftWarranty",
              "type": "address"
            },
            {
              "internalType": "uint256",
              "name": "tokenId",
              "type": "uint256"
            },
            {
              "internalType": "uint256",
              "name": "period",
              "type": "uint256"
            },
            {
              "internalType": "uint256",
              "name": "pno",
              "type": "uint256"
            },
            {
              "internalType": "address payable",
              "name": "seller",
              "type": "address"
            },
            {
              "internalType": "address payable",
              "name": "owner",
              "type": "address"
            },
            {
              "internalType": "uint256",
              "name": "claim",
              "type": "uint256"
            },
            {
              "internalType": "bool",
              "name": "activated",
              "type": "bool"
            }
          ],
          "internalType": "struct NFTMarket.WarrantyItem[]",
          "name": "",
          "type": "tuple[]"
        }
      ],
      "stateMutability": "view",
      "type": "function"
    },
    {
      "inputs": [],
      "name": "fetchMyWarranty",
      "outputs": [
        {
          "components": [
            {
              "internalType": "uint256",
              "name": "itemId",
              "type": "uint256"
            },
            {
              "internalType": "address",
              "name": "nftWarranty",
              "type": "address"
            },
            {
              "internalType": "uint256",
              "name": "tokenId",
              "type": "uint256"
            },
            {
              "internalType": "uint256",
              "name": "period",
              "type": "uint256"
            },
            {
              "internalType": "uint256",
              "name": "pno",
              "type": "uint256"
            },
            {
              "internalType": "address payable",
              "name": "seller",
              "type": "address"
            },
            {
              "internalType": "address payable",
              "name": "owner",
              "type": "address"
            },
            {
              "internalType": "uint256",
              "name": "claim",
              "type": "uint256"
            },
            {
              "internalType": "bool",
              "name": "activated",
              "type": "bool"
            }
          ],
          "internalType": "struct NFTMarket.WarrantyItem[]",
          "name": "",
          "type": "tuple[]"
        }
      ],
      "stateMutability": "view",
      "type": "function"
    },
    {
      "inputs": [],
      "name": "fetchWarranty",
      "outputs": [
        {
          "components": [
            {
              "internalType": "uint256",
              "name": "itemId",
              "type": "uint256"
            },
            {
              "internalType": "address",
              "name": "nftWarranty",
              "type": "address"
            },
            {
              "internalType": "uint256",
              "name": "tokenId",
              "type": "uint256"
            },
            {
              "internalType": "uint256",
              "name": "period",
              "type": "uint256"
            },
            {
              "internalType": "uint256",
              "name": "pno",
              "type": "uint256"
            },
            {
              "internalType": "address payable",
              "name": "seller",
              "type": "address"
            },
            {
              "internalType": "address payable",
              "name": "owner",
              "type": "address"
            },
            {
              "internalType": "uint256",
              "name": "claim",
              "type": "uint256"
            },
            {
              "internalType": "bool",
              "name": "activated",
              "type": "bool"
            }
          ],
          "internalType": "struct NFTMarket.WarrantyItem[]",
          "name": "",
          "type": "tuple[]"
        }
      ],
      "stateMutability": "view",
      "type": "function"
    },
    {
      "inputs": [
        {
          "internalType": "address",
          "name": "nftWarranty",
          "type": "address"
        },
        {
          "internalType": "uint256",
          "name": "itemId",
          "type": "uint256"
        },
        {
          "internalType": "address",
          "name": "to",
          "type": "address"
        }
      ],
      "name": "transferWarranty",
      "outputs": [],
      "stateMutability": "payable",
      "type": "function"
    }
  ],
  "bytecode": "0x608060405234801561001057600080fd5b506001600055600380546001600160a01b03191633179055611267806100376000396000f3fe60806040526004361061007b5760003560e01c80639870dce01161004e5780639870dce0146100e8578063a62d741514610108578063c23b139e14610138578063c2adfcec1461014b57600080fd5b8063033a9d78146100805780633ab18372146100955780633c28f8bb146100c05780634294df71146100d3575b600080fd5b61009361008e36600461102f565b610160565b005b3480156100a157600080fd5b506100aa6103d7565b6040516100b791906110a5565b60405180910390f35b6100936100ce366004610fee565b6105a8565b3480156100df57600080fd5b506100aa61067e565b3480156100f457600080fd5b506100aa610103366004611069565b61088b565b34801561011457600080fd5b50610128610123366004610fc3565b610a8c565b60405190151581526020016100b7565b610093610146366004610fc3565b610b90565b34801561015757600080fd5b506100aa610d2d565b6002600054141561018c5760405162461bcd60e51b815260040161018390611163565b60405180910390fd5b600260005573df3e18d64bc6a983f673ab319ccae4f1a57c7097331461021a5760405162461bcd60e51b815260206004820152603a60248201527f5472616e73616374696f6e2052656a656374656421204163636f756e74204e6f60448201527f7420417574686f72697a656420746f20437265617465204e46540000000000006064820152608401610183565b610228600180546001019055565b600061023360015490565b60408051610120810182528281526001600160a01b0388811660208084018281528486018b8152606086018b8152608087018b81523360a08901818152600060c08b0181815260e08c018281526101008d018381528f845260049a8b9052928e90209c518d55975160018d0180546001600160a01b0319908116928e16929092179055965160028d0155945160038c015592518a8801555160058a0180548616918a1691909117905591516006890180549094169716969096179091559051600786015592516008909401805460ff19169415159490941790935592516323b872dd60e01b815293945091926323b872dd9261033592909130918a9101611081565b600060405180830381600087803b15801561034f57600080fd5b505af1158015610363573d6000803e3d6000fd5b5050604080518681526020810186905233818301526000606082018190526080820181905260a082015290518793506001600160a01b038916925084917f259d9da10266f98b4ea7c6454be78e3f61126504a79a8bef4c5e6cf31b9de4c4919081900360c00190a450506001600055505050565b606060006103e460015490565b905060006103f160025490565b6001546103fe91906111d1565b90506000808267ffffffffffffffff81111561042a57634e487b7160e01b600052604160045260246000fd5b60405190808252806020026020018201604052801561046357816020015b610450610f37565b8152602001906001900390816104485790505b50905060005b8481101561059f57600060048161048184600161119a565b81526020810191909152604001600020600601546001600160a01b0316141561058d5760006004816104b484600161119a565b815260208082019290925260409081016000908120548082526004808552918390208351610120810185528154815260018201546001600160a01b0390811696820196909652600282015494810194909452600381015460608501529182015460808401526005820154841660a0840152600682015490931660c0830152600781015460e0830152600881015460ff16151561010083015285519293509185908790811061057257634e487b7160e01b600052603260045260246000fd5b602090810291909101015261058860018661119a565b945050505b80610597816111e8565b915050610469565b50949350505050565b600260005414156105cb5760405162461bcd60e51b815260040161018390611163565b60026000818155838152600460208190526040918290209092015490516323b872dd60e01b815290916001600160a01b038616916323b872dd916106159133918791879101611081565b600060405180830381600087803b15801561062f57600080fd5b505af1158015610643573d6000803e3d6000fd5b5050506000938452505060046020526040822060060180546001600160a01b0319166001600160a01b03929092169190911790556001905550565b6060600061068b60015490565b905060008060005b838110156106ec5733600460006106ab84600161119a565b81526020810191909152604001600020600601546001600160a01b031614156106dc576106d960018461119a565b92505b6106e5816111e8565b9050610693565b5060008267ffffffffffffffff81111561071657634e487b7160e01b600052604160045260246000fd5b60405190808252806020026020018201604052801561074f57816020015b61073c610f37565b8152602001906001900390816107345790505b50905060005b8481101561059f57336004600061076d84600161119a565b81526020810191909152604001600020600601546001600160a01b031614156108795760006004816107a084600161119a565b815260208082019290925260409081016000908120548082526004808552918390208351610120810185528154815260018201546001600160a01b0390811696820196909652600282015494810194909452600381015460608501529182015460808401526005820154841660a0840152600682015490931660c0830152600781015460e0830152600881015460ff16151561010083015285519293509185908790811061085e57634e487b7160e01b600052603260045260246000fd5b602090810291909101015261087460018661119a565b945050505b80610883816111e8565b915050610755565b6060600061089860015490565b905060008060005b838110156108ee5785600460006108b884600161119a565b81526020019081526020016000206004015414156108de576108db60018461119a565b92505b6108e7816111e8565b90506108a0565b5060008267ffffffffffffffff81111561091857634e487b7160e01b600052604160045260246000fd5b60405190808252806020026020018201604052801561095157816020015b61093e610f37565b8152602001906001900390816109365790505b50905060005b84811015610a8257866004600061096f84600161119a565b8152602001908152602001600020600401541415610a7057600060048161099784600161119a565b815260208082019290925260409081016000908120548082526004808552918390208351610120810185528154815260018201546001600160a01b0390811696820196909652600282015494810194909452600381015460608501529182015460808401526005820154841660a0840152600682015490931660c0830152600781015460e0830152600881015460ff161515610100830152855192935091859087908110610a5557634e487b7160e01b600052603260045260246000fd5b6020908102919091010152610a6b60018661119a565b945050505b80610a7a816111e8565b915050610957565b5095945050505050565b60008181526004602052604081206003015461dead90421115610b58576000838152600460208190526040918290206002015491516323b872dd60e01b81526001600160a01b038716916323b872dd91610aec9133918791879101611081565b600060405180830381600087803b158015610b0657600080fd5b505af1158015610b1a573d6000803e3d6000fd5b505050600085815260046020526040812060060180546001600160a01b0319166001600160a01b03959095169490941790935550909150610b8a9050565b6000838152600460205260408120600701805460019290610b7a90849061119a565b9091555060019250610b8a915050565b92915050565b60026000541415610bb35760405162461bcd60e51b815260040161018390611163565b60026000818155828152600460208190526040918290209092015490516331a9108f60e11b8152918201819052906001600160a01b038416906323b872dd908290636352211e9060240160206040518083038186803b158015610c1557600080fd5b505afa158015610c29573d6000803e3d6000fd5b505050506040513d601f19601f82011682018060405250810190610c4d9190610fa0565b33846040518463ffffffff1660e01b8152600401610c6d93929190611081565b600060405180830381600087803b158015610c8757600080fd5b505af1158015610c9b573d6000803e3d6000fd5b50505060008381526004602052604090206006810180546001600160a01b0319163317905560030154610cd2915062278d006111b2565b6000838152600460205260409020600301819055610cf190429061119a565b60008381526004602052604090206003810191909155600801805460ff19166001179055610d23600280546001019055565b5050600160005550565b60606000610d3a60015490565b905060008060005b83811015610d9b573360046000610d5a84600161119a565b81526020810191909152604001600020600501546001600160a01b03161415610d8b57610d8860018461119a565b92505b610d94816111e8565b9050610d42565b5060008267ffffffffffffffff811115610dc557634e487b7160e01b600052604160045260246000fd5b604051908082528060200260200182016040528015610dfe57816020015b610deb610f37565b815260200190600190039081610de35790505b50905060005b8481101561059f5760046000610e1b83600161119a565b815260208101919091526040016000206008015460ff16151560011415610f25576000600481610e4c84600161119a565b815260208082019290925260409081016000908120548082526004808552918390208351610120810185528154815260018201546001600160a01b0390811696820196909652600282015494810194909452600381015460608501529182015460808401526005820154841660a0840152600682015490931660c0830152600781015460e0830152600881015460ff161515610100830152855192935091859087908110610f0a57634e487b7160e01b600052603260045260246000fd5b6020908102919091010152610f2060018661119a565b945050505b80610f2f816111e8565b915050610e04565b6040518061012001604052806000815260200160006001600160a01b0316815260200160008152602001600081526020016000815260200160006001600160a01b0316815260200160006001600160a01b03168152602001600081526020016000151581525090565b600060208284031215610fb1578081fd5b8151610fbc81611219565b9392505050565b60008060408385031215610fd5578081fd5b8235610fe081611219565b946020939093013593505050565b600080600060608486031215611002578081fd5b833561100d81611219565b925060208401359150604084013561102481611219565b809150509250925092565b60008060008060808587031215611044578081fd5b843561104f81611219565b966020860135965060408601359560600135945092505050565b60006020828403121561107a578081fd5b5035919050565b6001600160a01b039384168152919092166020820152604081019190915260600190565b602080825282518282018190526000919060409081850190868401855b8281101561115657815180518552868101516001600160a01b0316878601528581015186860152606080820151908601526080808201519086015260a080820151611117828801826001600160a01b03169052565b505060c0818101516001600160a01b03169086015260e080820151908601526101009081015115159085015261012090930192908501906001016110c2565b5091979650505050505050565b6020808252601f908201527f5265656e7472616e637947756172643a207265656e7472616e742063616c6c00604082015260600190565b600082198211156111ad576111ad611203565b500190565b60008160001904831182151516156111cc576111cc611203565b500290565b6000828210156111e3576111e3611203565b500390565b60006000198214156111fc576111fc611203565b5060010190565b634e487b7160e01b600052601160045260246000fd5b6001600160a01b038116811461122e57600080fd5b5056fea2646970667358221220682f29b40de4ab8c9bfe6a4c68ee79a5c1ef11914dfe6134b69f4a677a43d73464736f6c63430008040033",
  "linkReferences": {},
  "deployedLinkReferences": {}
}