{
  "_format": "hh-sol-artifact-1",
  "contractName": "NFTMarket",
  "sourceName": "contracts/NFTMarket.sol",
  "abi": [
    {
      "inputs": [],
      "stateMutability": "nonpayable",
      "type": "constructor"
    },
    {
      "anonymous": false,
      "inputs": [
        {
          "indexed": true,
          "internalType": "uint256",
          "name": "itemId",
          "type": "uint256"
        },
        {
          "indexed": true,
          "internalType": "address",
          "name": "nftWarranty",
          "type": "address"
        },
        {
          "indexed": true,
          "internalType": "uint256",
          "name": "tokenId",
          "type": "uint256"
        },
        {
          "indexed": false,
          "internalType": "uint256",
          "name": "period",
          "type": "uint256"
        },
        {
          "indexed": false,
          "internalType": "uint256",
          "name": "pno",
          "type": "uint256"
        },
        {
          "indexed": false,
          "internalType": "address",
          "name": "seller",
          "type": "address"
        },
        {
          "indexed": false,
          "internalType": "address",
          "name": "owner",
          "type": "address"
        },
        {
          "indexed": false,
          "internalType": "bool",
          "name": "activated",
          "type": "bool"
        }
      ],
      "name": "WarrantyCreated",
      "type": "event"
    },
    {
      "inputs": [
        {
          "internalType": "uint256",
          "name": "prodno",
          "type": "uint256"
        }
      ],
      "name": "checkOwner",
      "outputs": [
        {
          "components": [
            {
              "internalType": "uint256",
              "name": "itemId",
              "type": "uint256"
            },
            {
              "internalType": "address",
              "name": "nftWarranty",
              "type": "address"
            },
            {
              "internalType": "uint256",
              "name": "tokenId",
              "type": "uint256"
            },
            {
              "internalType": "uint256",
              "name": "period",
              "type": "uint256"
            },
            {
              "internalType": "uint256",
              "name": "pno",
              "type": "uint256"
            },
            {
              "internalType": "address payable",
              "name": "seller",
              "type": "address"
            },
            {
              "internalType": "address payable",
              "name": "owner",
              "type": "address"
            },
            {
              "internalType": "bool",
              "name": "activated",
              "type": "bool"
            }
          ],
          "internalType": "struct NFTMarket.WarrantyItem[]",
          "name": "",
          "type": "tuple[]"
        }
      ],
      "stateMutability": "view",
      "type": "function"
    },
    {
      "inputs": [
        {
          "internalType": "address",
          "name": "nftWarranty",
          "type": "address"
        },
        {
          "internalType": "uint256",
          "name": "itemId",
          "type": "uint256"
        }
      ],
      "name": "claimWarranty",
      "outputs": [
        {
          "internalType": "bool",
          "name": "",
          "type": "bool"
        }
      ],
      "stateMutability": "nonpayable",
      "type": "function"
    },
    {
      "inputs": [
        {
          "internalType": "address",
          "name": "nftWarranty",
          "type": "address"
        },
        {
          "internalType": "uint256",
          "name": "itemId",
          "type": "uint256"
        }
      ],
      "name": "createMarketSale",
      "outputs": [],
      "stateMutability": "payable",
      "type": "function"
    },
    {
      "inputs": [
        {
          "internalType": "address",
          "name": "nftWarranty",
          "type": "address"
        },
        {
          "internalType": "uint256",
          "name": "tokenId",
          "type": "uint256"
        },
        {
          "internalType": "uint256",
          "name": "period",
          "type": "uint256"
        },
        {
          "internalType": "uint256",
          "name": "pno",
          "type": "uint256"
        }
      ],
      "name": "createWarrantyItem",
      "outputs": [],
      "stateMutability": "payable",
      "type": "function"
    },
    {
      "inputs": [],
      "name": "fetchActivatedWarranty",
      "outputs": [
        {
          "components": [
            {
              "internalType": "uint256",
              "name": "itemId",
              "type": "uint256"
            },
            {
              "internalType": "address",
              "name": "nftWarranty",
              "type": "address"
            },
            {
              "internalType": "uint256",
              "name": "tokenId",
              "type": "uint256"
            },
            {
              "internalType": "uint256",
              "name": "period",
              "type": "uint256"
            },
            {
              "internalType": "uint256",
              "name": "pno",
              "type": "uint256"
            },
            {
              "internalType": "address payable",
              "name": "seller",
              "type": "address"
            },
            {
              "internalType": "address payable",
              "name": "owner",
              "type": "address"
            },
            {
              "internalType": "bool",
              "name": "activated",
              "type": "bool"
            }
          ],
          "internalType": "struct NFTMarket.WarrantyItem[]",
          "name": "",
          "type": "tuple[]"
        }
      ],
      "stateMutability": "view",
      "type": "function"
    },
    {
      "inputs": [],
      "name": "fetchMyWarranty",
      "outputs": [
        {
          "components": [
            {
              "internalType": "uint256",
              "name": "itemId",
              "type": "uint256"
            },
            {
              "internalType": "address",
              "name": "nftWarranty",
              "type": "address"
            },
            {
              "internalType": "uint256",
              "name": "tokenId",
              "type": "uint256"
            },
            {
              "internalType": "uint256",
              "name": "period",
              "type": "uint256"
            },
            {
              "internalType": "uint256",
              "name": "pno",
              "type": "uint256"
            },
            {
              "internalType": "address payable",
              "name": "seller",
              "type": "address"
            },
            {
              "internalType": "address payable",
              "name": "owner",
              "type": "address"
            },
            {
              "internalType": "bool",
              "name": "activated",
              "type": "bool"
            }
          ],
          "internalType": "struct NFTMarket.WarrantyItem[]",
          "name": "",
          "type": "tuple[]"
        }
      ],
      "stateMutability": "view",
      "type": "function"
    },
    {
      "inputs": [],
      "name": "fetchWarranty",
      "outputs": [
        {
          "components": [
            {
              "internalType": "uint256",
              "name": "itemId",
              "type": "uint256"
            },
            {
              "internalType": "address",
              "name": "nftWarranty",
              "type": "address"
            },
            {
              "internalType": "uint256",
              "name": "tokenId",
              "type": "uint256"
            },
            {
              "internalType": "uint256",
              "name": "period",
              "type": "uint256"
            },
            {
              "internalType": "uint256",
              "name": "pno",
              "type": "uint256"
            },
            {
              "internalType": "address payable",
              "name": "seller",
              "type": "address"
            },
            {
              "internalType": "address payable",
              "name": "owner",
              "type": "address"
            },
            {
              "internalType": "bool",
              "name": "activated",
              "type": "bool"
            }
          ],
          "internalType": "struct NFTMarket.WarrantyItem[]",
          "name": "",
          "type": "tuple[]"
        }
      ],
      "stateMutability": "view",
      "type": "function"
    },
    {
      "inputs": [
        {
          "internalType": "address",
          "name": "nftWarranty",
          "type": "address"
        },
        {
          "internalType": "uint256",
          "name": "itemId",
          "type": "uint256"
        },
        {
          "internalType": "address",
          "name": "to",
          "type": "address"
        }
      ],
      "name": "transferWarranty",
      "outputs": [],
      "stateMutability": "payable",
      "type": "function"
    }
  ],
  "bytecode": "0x608060405234801561001057600080fd5b506001600055600380546001600160a01b03191633179055611181806100376000396000f3fe60806040526004361061007b5760003560e01c80639870dce01161004e5780639870dce0146100e8578063a62d741514610108578063c23b139e14610138578063c2adfcec1461014b57600080fd5b8063033a9d78146100805780633ab18372146100955780633c28f8bb146100c05780634294df71146100d3575b600080fd5b61009361008e366004610f87565b610160565b005b3480156100a157600080fd5b506100aa6103be565b6040516100b79190610ffd565b60405180910390f35b6100936100ce366004610f46565b610587565b3480156100df57600080fd5b506100aa61065d565b3480156100f457600080fd5b506100aa610103366004610fc1565b610862565b34801561011457600080fd5b50610128610123366004610f1b565b610a5b565b60405190151581526020016100b7565b610093610146366004610f1b565b610b33565b34801561015757600080fd5b506100aa610c8a565b6002600054141561018c5760405162461bcd60e51b81526004016101839061109c565b60405180910390fd5b600260005573df3e18d64bc6a983f673ab319ccae4f1a57c7097331461021a5760405162461bcd60e51b815260206004820152603a60248201527f5472616e73616374696f6e2052656a656374656421204163636f756e74204e6f60448201527f7420417574686f72697a656420746f20437265617465204e46540000000000006064820152608401610183565b610228600180546001019055565b600061023360015490565b60408051610100810182528281526001600160a01b0380891660208084018281528486018b8152606086018b8152608087018b81523360a08901818152600060c08b0181815260e08c018281528e83526004998a9052918d90209b518c55965160018c018054918c166001600160a01b0319928316179055955160028c0155935160038b01559151898701559051600589018054918916919094161790925591516006909601805492511515600160a01b026001600160a81b031990931696909516959095171790925592516323b872dd60e01b815293945091926323b872dd92610323929130918a9101610fd9565b600060405180830381600087803b15801561033d57600080fd5b505af1158015610351573d6000803e3d6000fd5b505060408051868152602081018690523381830152600060608201819052608082015290518793506001600160a01b038916925084917fcfc209ed431e2f0c54248e4008c259e3a981bbffc299183fd4f93dc2e8cad282919081900360a00190a450506001600055505050565b606060006103cb60015490565b905060006103d860025490565b6001546103e591906110eb565b90506000808267ffffffffffffffff81111561041157634e487b7160e01b600052604160045260246000fd5b60405190808252806020026020018201604052801561044a57816020015b610437610e96565b81526020019060019003908161042f5790505b50905060005b8481101561057e5760006004816104688460016110d3565b81526020810191909152604001600020600601546001600160a01b0316141561056c57600060048161049b8460016110d3565b815260208082019290925260409081016000908120548082526004808552918390208351610100810185528154815260018201546001600160a01b0390811696820196909652600282015494810194909452600381015460608501529182015460808401526005820154841660a0840152600682015493841660c0840152600160a01b90930460ff16151560e083015285519293509185908790811061055157634e487b7160e01b600052603260045260246000fd5b60209081029190910101526105676001866110d3565b945050505b8061057681611102565b915050610450565b50949350505050565b600260005414156105aa5760405162461bcd60e51b81526004016101839061109c565b60026000818155838152600460208190526040918290209092015490516323b872dd60e01b815290916001600160a01b038616916323b872dd916105f49133918791879101610fd9565b600060405180830381600087803b15801561060e57600080fd5b505af1158015610622573d6000803e3d6000fd5b5050506000938452505060046020526040822060060180546001600160a01b0319166001600160a01b03929092169190911790556001905550565b6060600061066a60015490565b905060008060005b838110156106cb57336004600061068a8460016110d3565b81526020810191909152604001600020600601546001600160a01b031614156106bb576106b86001846110d3565b92505b6106c481611102565b9050610672565b5060008267ffffffffffffffff8111156106f557634e487b7160e01b600052604160045260246000fd5b60405190808252806020026020018201604052801561072e57816020015b61071b610e96565b8152602001906001900390816107135790505b50905060005b8481101561057e57336004600061074c8460016110d3565b81526020810191909152604001600020600601546001600160a01b0316141561085057600060048161077f8460016110d3565b815260208082019290925260409081016000908120548082526004808552918390208351610100810185528154815260018201546001600160a01b0390811696820196909652600282015494810194909452600381015460608501529182015460808401526005820154841660a0840152600682015493841660c0840152600160a01b90930460ff16151560e083015285519293509185908790811061083557634e487b7160e01b600052603260045260246000fd5b602090810291909101015261084b6001866110d3565b945050505b8061085a81611102565b915050610734565b6060600061086f60015490565b905060008060005b838110156108c557856004600061088f8460016110d3565b81526020019081526020016000206004015414156108b5576108b26001846110d3565b92505b6108be81611102565b9050610877565b5060008267ffffffffffffffff8111156108ef57634e487b7160e01b600052604160045260246000fd5b60405190808252806020026020018201604052801561092857816020015b610915610e96565b81526020019060019003908161090d5790505b50905060005b84811015610a515786600460006109468460016110d3565b8152602001908152602001600020600401541415610a3f57600060048161096e8460016110d3565b815260208082019290925260409081016000908120548082526004808552918390208351610100810185528154815260018201546001600160a01b0390811696820196909652600282015494810194909452600381015460608501529182015460808401526005820154841660a0840152600682015493841660c0840152600160a01b90930460ff16151560e0830152855192935091859087908110610a2457634e487b7160e01b600052603260045260246000fd5b6020908102919091010152610a3a6001866110d3565b945050505b80610a4981611102565b91505061092e565b5095945050505050565b60008181526004602052604081206003015461dead90421115610b27576000838152600460208190526040918290206002015491516323b872dd60e01b81526001600160a01b038716916323b872dd91610abb9133918791879101610fd9565b600060405180830381600087803b158015610ad557600080fd5b505af1158015610ae9573d6000803e3d6000fd5b505050600085815260046020526040812060060180546001600160a01b0319166001600160a01b03959095169490941790935550909150610b2d9050565b60019150505b92915050565b60026000541415610b565760405162461bcd60e51b81526004016101839061109c565b60026000818155828152600460208190526040918290209092015490516331a9108f60e11b8152918201819052906001600160a01b038416906323b872dd908290636352211e9060240160206040518083038186803b158015610bb857600080fd5b505afa158015610bcc573d6000803e3d6000fd5b505050506040513d601f19601f82011682018060405250810190610bf09190610ef8565b33846040518463ffffffff1660e01b8152600401610c1093929190610fd9565b600060405180830381600087803b158015610c2a57600080fd5b505af1158015610c3e573d6000803e3d6000fd5b5050506000838152600460205260409020600601805460ff60a01b1933166001600160a81b031990911617600160a01b17905550610c80600280546001019055565b5050600160005550565b60606000610c9760015490565b905060008060005b83811015610cf8573360046000610cb78460016110d3565b81526020810191909152604001600020600501546001600160a01b03161415610ce857610ce56001846110d3565b92505b610cf181611102565b9050610c9f565b5060008267ffffffffffffffff811115610d2257634e487b7160e01b600052604160045260246000fd5b604051908082528060200260200182016040528015610d5b57816020015b610d48610e96565b815260200190600190039081610d405790505b50905060005b8481101561057e5760046000610d788360016110d3565b815260200190815260200160002060060160149054906101000a900460ff161515600115151415610e84576000600481610db38460016110d3565b815260208082019290925260409081016000908120548082526004808552918390208351610100810185528154815260018201546001600160a01b0390811696820196909652600282015494810194909452600381015460608501529182015460808401526005820154841660a0840152600682015493841660c0840152600160a01b90930460ff16151560e0830152855192935091859087908110610e6957634e487b7160e01b600052603260045260246000fd5b6020908102919091010152610e7f6001866110d3565b945050505b80610e8e81611102565b915050610d61565b6040518061010001604052806000815260200160006001600160a01b0316815260200160008152602001600081526020016000815260200160006001600160a01b0316815260200160006001600160a01b031681526020016000151581525090565b600060208284031215610f09578081fd5b8151610f1481611133565b9392505050565b60008060408385031215610f2d578081fd5b8235610f3881611133565b946020939093013593505050565b600080600060608486031215610f5a578081fd5b8335610f6581611133565b9250602084013591506040840135610f7c81611133565b809150509250925092565b60008060008060808587031215610f9c578081fd5b8435610fa781611133565b966020860135965060408601359560600135945092505050565b600060208284031215610fd2578081fd5b5035919050565b6001600160a01b039384168152919092166020820152604081019190915260600190565b602080825282518282018190526000919060409081850190868401855b8281101561108f57815180518552868101516001600160a01b03908116888701528682015187870152606080830151908701526080808301519087015260a08083015182169087015260c0808301519091169086015260e090810151151590850152610100909301929085019060010161101a565b5091979650505050505050565b6020808252601f908201527f5265656e7472616e637947756172643a207265656e7472616e742063616c6c00604082015260600190565b600082198211156110e6576110e661111d565b500190565b6000828210156110fd576110fd61111d565b500390565b60006000198214156111165761111661111d565b5060010190565b634e487b7160e01b600052601160045260246000fd5b6001600160a01b038116811461114857600080fd5b5056fea2646970667358221220439981c8170067bae2a3226b5251e4faec73c33434ed7c6c20171b1defba4bc364736f6c63430008040033",
  "linkReferences": {},
  "deployedLinkReferences": {}
}